:10000000F8FF0020110400003336000033360000F2
:10001000333600003336000033360000333600003C
:10002000333600003336000033360000333600002C
:10003000333600003336000033360000333600001C
:10004000333600003336000033360000333600000C
:10040000FFFFFFFFFFFFFFFFFFFFFFFFFEFFFFFFFD
:1004100062B603F08FFFFEE72DE9F04FA1B08246F0
:10042000002017461D4602910B900DF1440B6FF012
:1004300000490AE017F8011B0298D04702900028F3
:1004400000F0A3820B98401C0B90387808B90B98E9
:100450009DE22528EED10020059006900790089097
:1004600009900A9001E040F0010017F8011F2029CF
:10047000F9D023290DD02B2904D02D2906D03029DD
:100480000AD00CE040F0020080B2EEE740F0040039
:10049000FAE740F00800F7E740F01000F4E72A29F7
:1004A0000ED12968296051F8042B29600D92002A89
:1004B00004D5514240F004000D9180B27F1C11E040
:1004C00000210D9109E00D99494505D001EB81030B
:1004D00002EB430130390D917F1C3A78A2F13001D3
:1004E0000A29F0D339782E2903D04FF0FF310C912F
:1004F0001DE017F8011F2A2907D1296829607F1CF0
:1005000051F8042B29600C9211E000210C9109E0B4
:100510000C99494505D001EB810302EB43013039C9
:100520000C917F1C3A78A2F130010A29F0D3ADF882
:1005300038000FF6B820397800F076FD08B117F8CA
:10054000010B8DF83A009DF83A00682802BF39780F
:100550006829622005D06C2804BF38786C2803D144
:1005600071208DF83A007F1C11A8049017F8014BF8
:10057000B4F1250024D02038022840F2C680133878
:1005800000F0EC800B3800F05081401E00F0258117
:10059000401E022840F2B980001F00F01E81401F5B
:1005A00000F08480401E00F0D980401E29D0C01E7B
:1005B0000CD0801E00F0D280C01E00F0CF803EE143
:1005C0000120059025208DF8440044E1286828602A
:1005D00050F8044B28600394DDF83080B8F1000F28
:1005E00004D5204600F02CFD804607E0424600215D
:1005F000204600F041FD08B1A0EB0408CDF81880BA
:1006000029E1296829604FF03C0851F8040B296062
:100610000021CDE9000111A80390DDE90001049C4F
:1006200011B908B90C9ACAB10206120FA0EB021256
:100630003032A8F1010ED2B2F0463A2AA8BF2732D2
:1006400000090EF8042040EA0170090908BF0028DB
:1006500004D0039A08EB04039A42E5D308EB0400A4
:100660000390C8F13C010C980691814209DA401AC6
:1006700008904FF6EF71BDF838000840ADF838002B
:10068000E9E0002840F1E7809DF8380000F0140010
:10069000102840F0E0800D98059A801A089A801A78
:1006A000401A0128C0F2D7800890D4E09DF83A00A3
:1006B00062281AD0682806D06A280CD06C281CD072
:1006C000712808D019E02868286050F8041B2860B9
:1006D0000B980880BFE02868286050F8042B286039
:1006E0000B98C117C2E90001B5E02868286050F8EE
:1006F000041B28600B980870ADE02868286050F84B
:10070000041B28600B980860A5E02868C01D20F035
:1007100007022A60D2E9000108322A60CDE900010F
:10072000002903D5012005902D200CE0BDF83800EC
:10073000810703D5012005902B2004E0C00704D5D4
:100740000120059020208DF84400059911A8081873
:100750000390214600A800F0D7F97CE09DF83A20EC
:100760006C2A0DD0712A18BF6A2A09D12868C01DC9
:1007700020F007032B60D3E9000108332B6005E06C
:100780002968296051F8040B29600021CDE9000196
:10079000682A08BF80B207D0622A08BFC0B203D05F
:1007A000742A18BF7A2A02D10021CDE900019DF8F0
:1007B0003800000730D5DDE90001002908BF002816
:1007C0002AD044F02000782826D130208DF844002B
:1007D0008BF80140022005901EE029469DF83A0062
:1007E00000F0D8F8CDE90001002904DA0598411C91
:1007F00005912D210EE0BDF83800810704D505983C
:10080000411C05912B2105E0C00705D50598411C29
:100810000591202100F80B10059911A808180390E4
:10082000214600A800F0EDF815E0012005902868A9
:10083000286050F8041B28608DF844100BE001205C
:10084000059025208DF84400002C04D00598411C0B
:10085000059100F80B400D980599401A0899401A27
:100860000699401A0999401A0799401A0A99A0EB6B
:1008700001089DF8380040070FD420208DF8400073
:10088000002408E0012310AA00A9504600F097FBBD
:1008900000287AD1641C4445F4DB059C11AE0AE0C3
:1008A00016F8011B0298D047029000286DD00B98D3
:1008B000401C0B90641E002CF2D130208DF84000BB
:1008C0000026089C08E0012310AA00A9504600F069
:1008D00076FB002859D1761CA642F4DB069C039EC9
:1008E0000AE016F8011B0298D047029000284CD06D
:1008F0000B98401C0B90641E002CF2D130208DF818
:1009000040000026099C07E0012310AA00A95046D8
:1009100000F055FBC8BB761CA642F5DB0398069990
:10092000079C0E1809E016F8011B0298D0470290A8
:1009300058B30B98401C0B90641E002CF3D1302050
:100940008DF8400000260A9C07E0012310AA00A9A8
:10095000504600F034FBC0B9761CA642F5DB9DF88A
:10096000380040077FF571AD20208DF8400000244D
:1009700000E0641C4445BFF668AD012310AA00A93D
:10098000504600F01CFB0028F3D04FF0FF3021B0A0
:10099000BDE8F08F622826D068281DD06A2808D0CC
:1009A0006C2827D0712804D0742823D07A280CD042
:1009B00020E00868C01D20F007000860D0E900238F
:1009C000083008601946104670470A680A6052F8F5
:1009D000040B0A60002170470A680A6052F8040B91
:1009E0000A6000B20BE00A680A6052F8040B0A6061
:1009F00040B204E00A680A6052F8040B0A60C117AA
:100A000070472DE9FA4E05460A462F696F2A08BF3E
:100A1000082405D041F02000782814BF0A241024AF
:100A2000D5E900013C2681468A46642A18BF692A16
:100A300005D1002903DAD9F100096AEB4A0ABAF1B3
:100A4000000F08BFB9F1000F0CD1286B50B9082C6A
:100A500036D195F83800000732D530203B2687F88C
:100A60003B002DE0E31748465146224600F030FB9C
:100A7000A4FB0023A9EB02023032A6F1010BD2B293
:100A80005E463A2A03DB9DF80030513B9A180BF87A
:100A9000072081465FEA010A08BFB9F1000F03D0C1
:100AA000E868F1198842DDD3082C09D195F838009F
:100AB000000705D5F05D302802D0761E3020F055B5
:100AC000C6F13C00A861F119E960296B884208DA97
:100AD000081A28624FF6EF71288F08402887BDE872
:100AE000F38E00290ED595F8381001F01401102965
:100AF00008D1696B6A69891A2A6A891A081A012851
:100B0000A8BF2862BDE8F38E2DE9F34F8BB0D0E982
:100B10000089006B01AF002848BF062005D404BF40
:100B200041F02000672802D101200B99086340F2B0
:100B3000FF720B984168C1F30A50904220D108031C
:100B400002BF0B98006800280AD10B990320886126
:100B50009DF8300061381A2858D30FF2A44109E0FB
:100B60000B99032088619DF8300061381A284AD318
:100B70000FF284410B98C068032200F021FB00E1D2
:100B8000012807DA0B9800F056FB012802DB00234E
:100B90000026EDE00B9A526840F2FE3161F31E52DE
:100BA0000B994A6040F2FE31461A404649460022FF
:100BB000002300F061FB38BF89F0004936B247F2EC
:100BC000975070434949DFF828B190FBF1F636B2EF
:100BD000C6F107079246012F1BDBF80707D55246DF
:100BE0005B464046494600F05FFB804689467F10E1
:100BF0005046594652465B4600F056FB82468B46AD
:100C0000002FEAD126E00FF2EC31B3E70FF2EC311E
:100C1000B0E77F420024374D12E0F80707D552466F
:100C20005B462046294600F03FFB04460D467F10F8
:100C30005046594652465B4600F036FB82468B468C
:100C4000002FEAD14046494622462B4600F0FEFBE3
:100C5000804689469DF8300040F02005662D0CBF87
:100C600006F10A0006200B99096B4718142FA8BF3C
:100C7000132730208DF804000DF10504DFF878B05B
:100C8000012F3BDB4046494600F004FD014604F1DC
:100C9000080204234FF00A0CB1FBFCFC0CEB8C04A3
:100CA000A1EB4401303102F8011D0A21BCFBF1FE29
:100CB0000EEB8E04ACEB44043034714602F8014D67
:100CC0005B1EE7D1083F02F10804012FD8DB00F0DA
:100CD000F7FC02460B464046494600F0FFFC002266
:100CE0005B4600F0E1FA80468946CBE7A08601002A
:100CF000000024400000F03F84D797410DF105002B
:100D0000201A0DF1050702E0401E761E7F1C39787F
:100D10003029F9D0662D02D136B2711C03E0652D61
:100D20000CBF012100210B9A126B8B181BB2984249
:100D3000B8BF03461BB219001AD4814204DAC85D59
:100D40003528A8BF392000DA3020CA19521E00E029
:100D50005B1E12F80159491E8542F9D0392802D18B
:100D6000C85D401CC855002902D57F1E5B1C761C3F
:100D700036B29DF830100B9800961BB23A4600F040
:100D800003F80DB0BDE8F08F2DE9F04786B00646B8
:100D90008A4690461D4600F07EFD406A376B90F80B
:100DA0000090012D02DA01250FF258284AF02000A8
:100DB000BDF93840662808BF641C13D0672840F08E
:100DC000888014F1040F73DBBC4271DA96F83800A6
:100DD000641C000702D4BD42B8BF2F4624B23F1B9B
:100DE00048BF0027F068B16924B2012C21DA302312
:100DF0004A1C0B54012F03DA96F83810090702D564
:100E000002F80090521CB261E742B8BF7C4224B2A3
:100E10006142E7197162AF42B8BF3D462DB2F5613C
:100E20002A46B3694146181800F0CAF9781BB06227
:100E3000AEE00818A54216DA2A46414600F0C0F98D
:100E4000B1696918B161601B7062012F03DA96F80D
:100E50003800000705D5F06801F80090F069401CE3
:100E6000F061B76294E02246414600F0A9F9B0690A
:100E700020182D1B012F03DA96F83810090703D527
:100E8000F16800F80190401C2DB2B061AF42B8BFCC
:100E90003D46F068B3692DB22A4604EB08011818E4
:100EA00000F08EF9B0692818B061781B70626FE0AD
:100EB000BD4204DA96F83810090758BF2F467F1E46
:100EC00048BF0027BAF1670F0CBF4FF0650A4FF01B
:100ED000450AB169F06818F8013B0B544A1C012F10
:100EE00005DA96F83810090758BFB26115D502F82F
:100EF0000090531CB361012F0FDB6D1E2DB2AF426A
:100F0000B8BF3D462DB22A464146181800F058F9A0
:100F1000B0692818B061781B7062F068B16901EBA4
:100F20000008200008F801AB03D42B2008F8010BBF
:100F300003E02D2108F8011B6442002502AF08E000
:100F40000A2200A800F0C0FC019807F8010B6D1CF4
:100F5000009C21B20129F3DA022D06DA4AF02000C2
:100F6000652804BF302008F8010B4DB9302008F87F
:100F7000010B07E06D1E02A8285C303008F8010B59
:100F8000012DF7DAF068B1690818A8EB0000F061EC
:100F900096F8380000F0140010280DD17069B1697E
:100FA0000818716A0818F1690818B16A0818716B95
:100FB0008842BCBF081A306206B0BDE8F087F8B5B9
:100FC00004460D4616461F46002004E0E86A401C11
:100FD000E8627F1E002047B116F8011BA868A047F1
:100FE000A8600028F2D14FF0FF30F2BD686A6C743F
:100FF0007A4C00006E616E004E414E00696E6600D4
:10100000494E4600300050F8041B61B150F8042BE3
:10101000D30744BFA9F101039A18002342F8043B07
:10102000091FFAD1EFE770470278C9B28A421AB1B4
:101030001CBF10F8012FF9E718BF0020704700000F
:1010400000F10103810704D010F8011B89B1810769
:10105000FAD10268B2F10131914311F0803F04BF2F
:1010600050F8042FF6E710F8011B11B110F8011B1E
:10107000FBE7C01A70470000C9B2830706D0521EB2
:1010800022D310F8013B9942F7D11FE0083A13D35D
:1010900002F1040241EA012141EA014150F8043B16
:1010A000121F21BF4B40A3F1013C2CEA030C1CF0A2
:1010B000803FF3D0C9B2001F083210F8013B521E26
:1010C00028BF91EA030FF8D818BF0120401E7047CF
:1010D0001B4213D1094236D12AB18446B0FBF2F04B
:1010E00002FB10C2704700F0F7BBFCD300220023C4
:1010F00070470B000200002100207047904271EB06
:10110000030CF6D370B5B1FA81F4B3FA83F52C1B56
:10111000A340C4F1200532FA05F63343A2405FF044
:101120000046E64002E05B085FEA3202841A71EB97
:10113000030524BF204629467641F4D302000B0064
:101140003000002170BD012ACFD970B5140C20D019
:10115000B1FA81F4B2FA82F5C4F120046419B4F151
:101160002006D6D3B2405FF00044F440002502E0F0
:1011700052085FEA3303C61A71EB020E24BF3046F1
:10118000714664416D41F3D302000B002000290039
:1011900070BD0C46B1FBF2F102FB11452D0445EA8E
:1011A0001045B5FBF2F402FB145580B240EA054548
:1011B000B5FBF2F002FB105240EA044070BD0000A3
:1011C00062B38B0708D0521E11F8013B00F8013BB7
:1011D00000F024808B07F6D1830740F0208000BF09
:1011E000103A07D330B4B1E83810103AA0E83810FC
:1011F000F9D230BC530724BFB1E80810A0E80810AA
:1012000044BF51F8043B40F8043BD20724BF31F8F7
:10121000022B20F8022B44BF0B7803707047083A6A
:1012200007D3B1E80810083A40F8043B40F804CB73
:10123000F7D25307E4E730B4436803F000420121DA
:101240001B031B0B436004BF0368002B08D10DE098
:101250000368DD0F45EA440444605B000360491EF7
:101260004468E302F4D523031B0B436043681A432D
:101270004260084630BC70474FF4001C1CEB410F25
:1012800094BF1CEB430F09E041EA030C50EA4C0CFD
:1012900052EA0C0C03D2994208BF9042704714BF27
:1012A0008B42824270470000B0B581EA030C0CF01B
:1012B000004C40F2FF7515EA11541DBF15EA135793
:1012C000AC42AF4239E0E41923EA455343F48013BA
:1012D000C90241F0004141EA505EC7021100A7FB7C
:1012E000020200284FF00000EEFB01204FF0000149
:1012F000E3FB072118BF42F00102401800214941D9
:10130000E3FB0E01A4F580640F0302D252004041BA
:10131000494154F101046CDD470872F1004250F17B
:10132000000051EB0451A1F580115CBF41EA0C01B2
:10133000B0BD4CEA05510020B0BD05EA1357AC42E0
:1013400014BFAF4241E050EA410E1CBF52EA430EC7
:1013500002E061460020B0BD24423C441BD15FEA5C
:10136000070EF6D0090302BF01460020AEF1140EAD
:10137000B1FA81F7AEEB070401FA07FE0C37C7F1AB
:10138000200100FA07F7C8404EEA000E23EA455351
:1013900043F48013A2E733F00043B3FA83F704BFAA
:1013A000B2FA82FE77440B3FE41BB7F1200E2FBF49
:1013B00002FA0EF3BB40C7F1200E22FA0EFE38BF30
:1013C00043EA0E03BA40641C82E750EA410E14BFA0
:1013D00052EA430E6FF000014FF4001717EB430F72
:1013E0008ABF194617EB410FB5E74CEA05510020BB
:1013F000B0BDD4F10104B4F120070FDAC4F1200725
:10140000520828BF42F0010210FA07F501FA07F767
:10141000E1BF2A43E0403843E1400FE0352C98DC3F
:10142000C7F1200452EA400220FA07F218BF42F046
:10143000010231FA07F0A1400A43002172F1004293
:1014400050F1000051EB0C01B0BD0000F0B540F2CE
:10145000FF7581EA030C0CF0004C15EA11541DBF16
:1014600015EA1357AC42AF42E5E0BC41C1F31301AA
:10147000C3F31303801A994143F4801304D2641E0A
:101480004000494180185941C90241EA5051B1FB1D
:10149000F3F603FB1611A2FB0675D7EBC020A9419A
:1014A00002D2761E80185941C90241EA5051B1FB5F
:1014B000F3FE03FB1E11A2FB0E75D7EBC020A94162
:1014C00003D2AEF1010E80185941890241EA9051D0
:1014D000760546EA8E2EB1FBF3F603FB1611A2FB4E
:1014E0000675D7EB8020A94102D2761E801859419B
:1014F000C90241EA50514EEA060EB1FBF3F603FB76
:101500001611A2FB0675D7EBC020A94102D2761EA8
:1015100080185941C90241EA5051B1FBF3F703FB6E
:101520001711A2FB0735D3EBC020A94167F10007D3
:101530000CBF004247F0010766F3D5274FEA1E3182
:10154000B80814F5806412DDBD0775F1004250EB58
:101550000E5051EB045111F5801F5CBF41EA0C01A4
:10156000F0BD4CF07F6141F0E0410020F0BDBD07CF
:101570006D0840EA0E5041F48011D4F10104B4F139
:1015800020060ADAC4F120060200E04001FA06F360
:10159000E1401843B24015430EE0342C13DCC6F191
:1015A000200445EA40056D0820FA06F2154321FAA9
:1015B00006F0A1400D43002175F1004250F10000FA
:1015C00051EB0C01F0BD00205FEA0C01F0BDCFB97A
:1015D00092185B41B3FA83F704BFB2FA82F6BF19DF
:1015E0000B3FB7F120062FBF02FA06F3BB40C7F14D
:1015F000200622FA06F638BF3343BA401CB1E4197C
:10160000641E33E77F4231F00041B1FA81F404BF38
:10161000B0FA80F6A4190B3CB4F120062FBF00FAF3
:1016200006F1A140C4F1200620FA06F638BF314386
:10163000A0403C1B1AE7AC421ABF05EA1357AF4261
:1016400012E050EA41061CBF52EA4306BFE750EAE7
:101650004107304661461CBF41EA0551F0BD52EAE0
:10166000430C08BFC143F0BD00204FF4001616EB39
:10167000410F98BF16EB430F08BF16EB410F24BF75
:10168000C14305E016EB430F0CBF61464CEA055120
:10169000F0BD0000400D40EAC120490080F00D80FF
:1016A00040F00040490DA1F58061491C05D4D1F1FD
:1016B0001F0154BFC840C01770474FF0000070476B
:1016C000010000BF09D0B0FA80F18840C91CC1F503
:1016D0008461090501EBD0214005704770B44FF0DB
:1016E000004591EA030F44BF6B4000F0F7B800BF1C
:1016F000841A71EB030604D26E40001BB14112192B
:1017000073414FF4001C1CEB410F34BF7CEB4306CC
:1017100084E00C0DA4EB1356362E7DDC012E43DC49
:1017200045EAC32343EA525312BFD20292025B0836
:10173000240545EAC12141EA5051D2EBC02099412C
:1017400025D407D1B0FA80F610FA06F164D0002053
:10175000203608E0B1FA81F6B140C6F1200220FA45
:1017600002F21143B0404FEAF474B4EB465434F043
:1017700001064FEA74040AD8D6F50016760D04F077
:101780000044F04061FA06F25040F1404840C00A7F
:1017900040EA415021F0004128BF5FEA500550F176
:1017A000000044EBD12137E045EAC323DB0A45EAD8
:1017B000C121C90AB6F120050EDD42EA0242120C2F
:1017C000C5F1200603FA06F6EB4042EA06056D4233
:1017D000984161F100010DE062FA06F5F2405540D2
:1017E00063FA06FC82EA0C02F3405A406D429041D3
:1017F00061EB030111F4801F05D1641E620502D064
:101800006D004041494121F48011430875F10043C6
:1018100050F1000041EB045170BC70471CEB410FCC
:1018200015D223F0004352EA43060BD04FEA4C0C8A
:10183000BCEB410F04D80C0D661E342EB7DDEBE770
:10184000801A994150EA410608BF0021E4E708BF29
:101850001CEB430F28BF6FF00001DDE780B5134894
:1018600000F0A6F80FF24801016041608160C1609C
:101870000161416181610FF23C0242628162C16299
:10188000016341630FF2300282630FF23402C263DC
:101890000164416401BD10B5044800F089F80446B4
:1018A000206808B9FFF7DAFF204610BDCC23FF1FE0
:1018B000000000002E00000066616C7365000000EF
:1018C000747275650000000091FBF2F303FB1211C6
:1018D000C0E900317047000070470000841A71EBC6
:1018E000030603D2001BB141121973414FF4001CCF
:1018F0001CEB410F34BF7CEB430443E00C0DA4EB25
:101900001356352E50DC45EAC323DB0A45EAC121D4
:10191000C912B6F120050DDD63FA05F6EB4086EA43
:101920000305124218BF45F00105C01851F100012E
:101930000CD213E062FA06F5F2405540F3415A40EA
:10194000B340F3405A408018594107D349085FEA31
:1019500030005FEA350528BF45F0010501F580112B
:10196000420875F1004250F1000041EB045170BC97
:101970004FF4001C1CEB410F38BF70470020090DCD
:10198000090570471CEB410F10D252EA43060BD0F9
:10199000BCEB410F05D80C0DAB43661E342EB5DDF4
:1019A00002E0AB438018594170BC704770BC70476F
:1019B000704700000DC1110209030CD01240173FFF
:1019C000185019031A783200A00A63E0ACFF650CC6
:1019D0006600670029142C1E2A007E0C7F16802AC0
:1019E000814E8261836F847B8586868E879788A4EB
:1019F00089AF8AC58BD78CE88D204A0049134708E8
:101A00004B144C17460522992303A6049B009C35D2
:101A1000AB069E119F02000001003137000000005C
:101A200000000000000000000000000000000000B6
:101A3000000000000000000000004E6F6E4D61735A
:101A40006B61626C650000000048617264466175FC
:101A50006C740000000000004D656D4D616E6167A3
:101A6000656D656E7400004275734661756C740037
:101A700000000000000055736167654661756C7475
:101A80000000000000000000000000000000000056
:101A90000000000000000000000000000000000046
:101AA0000000000000000000000000000000000036
:101AB0000000000000000000000000000000000026
:101AC00000535643616C6C000000000000000000F1
:101AD00044656275674D6F6E69746F720000000037
:101AE0000000000000000000000000000000506541
:101AF0006E6453560000000000000000005379732C
:101B00005469636B0000000000000000444D413048
:101B10000000000000000000000000444D413100C2
:101B200000000000000000000000444D41320000B1
:101B3000000000000000000000444D4133000000A0
:101B40000000000000000000444D4134000000008F
:101B500000000000000000444D413500000000007E
:101B6000000000000000444D41360000000000006D
:101B70000000000000444D4137000000000000005C
:101B800000000000444D413800000000000000004B
:101B9000000000444D41390000000000000000003A
:101BA0000000444D41313000000000000000000002
:101BB00000444D41313100000000000000000000F1
:101BC000444D41313200000000000000000000449C
:101BD0004D41313300000000000000000000444D82
:101BE00041313400000000000000000000444D417D
:101BF000313500000000000000000000444D415F4E
:101C00004572726F720000000000004D434D0000ED
:101C1000000000000000000000004654464C000098
:101C2000000000000000000000526561645F436F27
:101C30006C6C6973696F6E004C56445F4C5657006C
:101C4000000000000000004C4C57000000000000A5
:101C50000000000000005761746368646F67000053
:101C60000000000000524E4700000000000000008D
:101C70000000000049324330000000000000000076
:101C80000000004932433100000000000000000065
:101C90000000535049300000000000000000000028
:101CA0000053504931000000000000000000000017
:101CB00053504932000000000000000000000043C3
:101CC000414E305F4F525F4D425F62756600434147
:101CD0004E305F4275735F4F666600000043414EB1
:101CE000305F4572726F72000000000043414E3059
:101CF0005F54785F5761726E696E6743414E305F23
:101D000052785F5761726E696E6743414E305F571C
:101D1000616B655F55700000005265736572766592
:101D200064353100000000005265736572766564A9
:101D30003532000000000043414E315F4F525F4D8D
:101D4000425F6275660043414E315F4275735F4F7B
:101D5000666600000043414E315F4572726F72004B
:101D60000000000043414E315F54785F5761726E4E
:101D7000696E6743414E315F52785F5761726E6999
:101D80006E6743414E315F57616B655F5570000070
:101D90000052657365727665643539000000000095
:101DA0005265736572766564363000000000005538
:101DB000415254305F52585F545800000000554162
:101DC0005254305F4552520000000000005541520D
:101DD00054315F52585F545800000000554152542E
:101DE000315F45525200000000000055415254320C
:101DF0005F52585F54580000000055415254325F02
:101E000045525200000000000055415254335F52C9
:101E1000585F54580000000055415254335F4552FA
:101E20005200000000000055415254345F52585F88
:101E300054580000000055415254345F455252003E
:101E4000000000000055415254355F52585F54580D
:101E50000000000055415254355F455252000000C9
:101E6000000000414443300000000000000000007A
:101E70000000414443310000000000000000000069
:101E800000434D5030000000000000000000000042
:101E9000434D5031000000000000000000000043EE
:101EA0004D503200000000000000000000004654C9
:101EB0004D30000000000000000000000046544DBE
:101EC00031000000000000000000000046544D32C8
:101ED0000000000000000000000000434D5400001E
:101EE0000000000000000000000052544300000009
:101EF0000000000000000000005265736572766506
:101F000064383300000000005049543000000000E5
:101F100000000000000000504954310000000000A3
:101F20000000000000005049543200000000000092
:101F30000000000000504954330000000000000081
:101F4000000000005044423000000000000000008B
:101F50000000005553423000000000000000000067
:101F600000005553424443440000000000000000BC
:101F700000454E45545F313538385F54696D6572A0
:101F8000454E45545F5472616E736D69740000452F
:101F90004E45545F52656365697665000000454EA5
:101FA00045545F4572726F72000000000049325361
:101FB00030000000000000000000000053444843CF
:101FC0000000000000000000000000444143300019
:101FD0000000000000000000000044414331000008
:101FE00000000000000000000054534930000000D1
:101FF00000000000000000004D434700000000000A
:10200000000000000000004C5054696D6572000033
:10201000000000000000526573657276656431301F
:102020003200000000504F525441000000000000F8
:1020300000000000504F5254420000000000000019
:10204000000000504F525443000000000000000008
:102050000000504F525444000000000000000000F7
:1020600000504F52544500000000000000000000E6
:102070005265736572766564313038000000005235
:102080006573657276656431303900000000526511
:1020900073657276656431313000000000526573FB
:1020A00065727665643131310000000052657365F8
:1020B00072766564313132000000005265736572DA
:1020C00076656431313300000000526573657276C5
:1020D00065643131340000000052657365727665C5
:1020E00064313135000000005265736572766564B5
:1020F00031313600000000526573657276656431D7
:1021000031370000000052657365727665643131C5
:1021100038000000005265736572766564313139AC
:102120000000000000F00F4040F00F4080F00F4032
:10213000C0F00F4000F10F4066000A1D3200070199
:10214000640007106E000406780004088200040A88
:102150008C00040C9600040EA0000410AA000412C7
:10216000B4000414BE000416C8000418D200041AF7
:10217000DC00041CE100041DE600041EEB00041F4B
:10218000F4000317FA000318130101062C010214CE
:10219000000109080090044000A0044000B0044081
:1021A00000C0044000D0044000A0064000B006403B
:1021B00000C0064000D0064000A00E4000B00E4017
:1021C0006A6E6B6C676D4E4F020401017C23FF1F2A
:1021D000CC23FF1F7C23FF1F7C23FF1F7C23FF1FBB
:1021E000610CFF1F480CFF1F0000000000000000F2
:1021F00000000000000000000000000000000000DF
:1022000000000000000000000000000000000000CE
:102210000000000000000000000000F800000000C6
:10222000000000333000000000100C06100C060007
:10223000000000000000000040C07840C07840006E
:10224000043F04043F040400007088FC08300000D0
:10225000001820FF211E0000F008F000E018000028
:1022600000211C031E211E0000F0088870000000E1
:102270001E2123241927211010160E000000000033
:102280000000000000000000000000E01804020050
:10229000000000071820400000020418E0000000C1
:1022A0000040201807000000404080F080404000BF
:1022B0000202010F01020200000000F00000000015
:1022C0000101011F010101000000000000000000E9
:1022D00080B070000000000000000000000000005E
:1022E00000010101010101010000000000000000E7
:1022F0000030300000000000000000008060180482
:10230000006018060100000000E010080810E0005E
:10231000000F102020100F00001010F80000000027
:102320000020203F2020000000700808088870006E
:1023300000302824222130000030088888483000EE
:102340000018202020110E000000C02010F800000E
:1023500000070424243F240000F8088888080800A7
:102360000019212020110E0000E0108888180000BC
:10237000000F112020110E0000380808C83808008E
:102380000000003F0000000000708808088870000E
:10239000001C222121221C0000E010080810E0008F
:1023A0000000312222110F00000000C0C000000018
:1023B000000000303000000000000080000000003D
:1023C0000000806000000000000080402010080035
:1023D00000010204081020004040404040404000FE
:1023E00004040404040404000008102040800000D9
:1023F0000020100804020100007048080808F000DE
:102400000000003036010000C030C828E810E000AD
:102410000718272423140B000000C038E000000038
:10242000203C23020227382008F8888888700000A2
:10243000203F202020110E00C03008080808380076
:10244000071820202010080008F808080810E000ED
:10245000203F202020100F0008F88888E80810008E
:10246000203F20202320180008F88888E808100062
:10247000203F200003000000C0300808083800009A
:1024800007182020221E020008F808000008F8089B
:10249000203F210101213F20000808F80808000022
:1024A0000020203F2020000000000808F808080055
:1024B000C08080807F00000008F888C028180800CD
:1024C000203F20012638200008F808000000000006
:1024D000203F20202020300008F8F800F8F80800FD
:1024E000203F003F003F200008F830C00008F808F7
:1024F000203F200007183F00E01008080810E00007
:102500000F10202020100F0008F808080808F0001D
:10251000203F210101010000E01008080810E00040
:102520000F18242438504F0008F8888888887000D5
:10253000203F2000030C3020007088080808380075
:102540000038202121221C00180808F8080818006B
:102550000000203F2000000008F808000008F808EC
:10256000001F202020201F000878880000C838089D
:10257000000007380E010000F80800F80008F80015
:10258000033C0700073C03000818688080681808AF
:1025900020302C03032C30200838C800C83808002D
:1025A0000000203F2000000010080808C83808007C
:1025B0002038262120201800000000FE0202020020
:1025C0000000007F40404000000C30C000000000D0
:1025D000000000010638C00000020202FE000000F8
:1025E000004040407F00000000000402020204009E
:1025F00000000000000000000000000000000000DB
:1026000080808080808080800002020400000000C2
:1026100000000000000000000000808080800000BA
:102620000019242222223F2008F8008080000000A8
:10263000003F112020110E0000000080808000006B
:10264000000E112020201100000000808088F8007A
:10265000000E112020103F200000808080800000AC
:10266000001F222222221300008080F08888881810
:102670000020203F2020000000008080808080001B
:10268000006B94949493600008F8008080800000B0
:10269000203F210000203F2000809898000000008B
:1026A0000020203F202000000000008098980000BB
:1026B00000C08080807F000008F8000080808000DB
:1026C000203F24022D302000000808F80000000000
:1026D0000020203F202000008080808080808000BB
:1026E000203F20003F20003F80800080808000004D
:1026F000203F210000203F200000808080800000DB
:10270000001F202020201F0080800080800000000B
:1027100080FFA12020110E0000000080808080003A
:10272000000E112020A0FF8080808000808080002B
:1027300020203F2120000100000080808080800058
:102740000033242424241900008080E080800000CD
:102750000000001F2020000080800000008080001A
:10276000001F202020103F2080808000008080807B
:1027700000010E300806010080800080008080800B
:102780000F300C030C300F00008080008080800030
:102790000020312E0E31200080808000008080805B
:1027A00080818E701806010000808080808080000B
:1027B0000021302C2221300000000000807C020229
:1027C00000000000003F404000000000FF0000004B
:1027D00000000000FF0000000002027C80000000FA
:1027E0000040403F00000000000601010202040416
:1027F000000000000000000030B4C9B2002904D07D
:102800000124DFF8FC532C6003E00024DFF8F053D0
:102810002C600024DFF8EC532C60D2B2002A01D1E6
:10282000C0B2C04300242300DBB2082B15DA002419
:10283000DFF8D4532C60040604D50124DFF8CC5310
:102840002C6003E00024DFF8C4532C600124DFF87F
:10285000B8532C6040005B1CE6E70124DFF8A4536A
:102860002C600124DFF898532C6030BC704738B5D9
:1028700004000D0001220021B5F15000C0B2FFF7A5
:10288000BBFF01220021E4B2200950F01000C0B2C9
:10289000FFF7B2FF0122002114F00F0050F00100F9
:1028A000C0B2FFF7A9FF31BD2DE9F04705000E00CA
:1028B00017009846089C5FF000095FF0000AB7F126
:1028C000200081465FFA88F8B8F1010F79D1EDB2A6
:1028D000802D02DB00200500B61C3100C9B22800A3
:1028E000C0B2FFF7C4FFE4B2012C35D1002082460C
:1028F0005FFA8AFABAF1080F0FDA01220121DFF834
:1029000010035FFA89F95FEA091353FA8AF3185C36
:10291000FFF772FF1AF1010AEAE7711CC9B2280039
:10292000C0B2FFF7A4FF002082465FFA8AFABAF12C
:10293000080F80F28C8001220121DFF8D4025FFAB7
:1029400089F95FEA091353FA8AF31818007AFFF736
:1029500053FF1AF1010AE8E7002082465FFA8AFA7B
:10296000BAF1080F0FDA00220121DFF8A4025FFAA2
:1029700089F95FEA091353FA8AF3185CFFF73CFF01
:102980001AF1010AEAE7711CC9B22800C0B2FFF7C8
:102990006EFF002082465FFA8AFABAF1080F56DA13
:1029A00000220121DFF868025FFA89F95FEA091362
:1029B00053FA8AF31818007AFFF71EFF1AF1010A7A
:1029C000E9E75FFA88F8B8F1000F40D1EDB2802D49
:1029D00002DB00200500761C3100C9B22800C0B21D
:1029E000FFF745FFE4B2012C18D1002082465FFAC0
:1029F0008AFABAF1060F2ADA01220121DFF814025D
:102A00005FFA89F9062303FB09005FFA8AFA1AF8CC
:102A10000000FFF7F1FE1AF1010AE8E70020824604
:102A20005FFA8AFABAF1060F11DA00220121DFF803
:102A3000E4015FFA89F9062303FB09005FFA8AFAC9
:102A40001AF80000FFF7D8FE1AF1010AE8E7BDE81E
:102A5000F0872DE9F84305000E0017009846089C02
:102A60005FF000095FFA89F919F8070000283DD0E6
:102A7000E4B2012C0ED1012000904346DBB25FFA94
:102A800089F919F807203100C9B22800C0B2FFF750
:102A90000BFF0DE0002000904346DBB25FFA89F99E
:102AA00019F807203100C9B22800C0B2FFF7FCFEB8
:102AB0005FFA88F8B8F1010F09D10835EDB2792D28
:102AC00002DB00200500B61C19F10109CAE75FFA14
:102AD00088F8B8F1000FC5D1AD1DEDB27B2D02DB3A
:102AE00000200500761C19F10109BBE7BDE8F18360
:102AF0002DE9F84F3C20ADF80000502083464648B1
:102B00000500BDF8000080B2C008ADF80200BDF8B5
:102B10000000082190FBF1F202FB11029146002017
:102B20000600BDF80200B6B2864231D23100C9B209
:102B30000020FFF79CFEF000824600200700BFB295
:102B4000502F23DA00200400002080461FFA88F866
:102B5000B8F1080F12DAE4B264081FFA88F818FA1C
:102B60008AF01FFA8BFB0BFB0050BFB2385C0128C8
:102B700001D154F0800418F10108E7E70122012196
:102B80002000C0B2FFF738FE7F1CD8E7761CC8E7EC
:102B90003100C9B20020FFF76AFEF0008246002033
:102BA0000700BFB2502F28DA002004000020804622
:102BB0001FFA88F81FFA89F9C84512D2E4B26408EE
:102BC0001FFA88F818FA8AF01FFA8BFB0BFB0050EB
:102BD000BFB2385C012801D154F0800418F101081B
:102BE000E6E7E4B2D9F10800044101220121200006
:102BF000C0B2FFF701FE7F1CD3E7BDE8F18F0000F4
:102C00001C00FE431800FE432800FE432400FE4340
:102C1000082200001C3F0000B010FF1FDFF800F08A
:102C2000050EFF1FDFF8B41340B231F8201040B298
:102C30000128C0F2788140B2162880F27481002207
:102C4000DFF89C331A7089B2652904DA0022DFF8B4
:102C500090335A707DE089B2C92904DA0122DFF885
:102C600080335A7075E089B2B1F5967F04DC022298
:102C7000DFF86C335A706CE089B2B1F5C87F04DCC0
:102C80000322DFF85C335A7063E089B2B1F5FA7F52
:102C900004DC0422DFF848335A705AE089B2B1F5F7
:102CA000167F04DC0522DFF838335A7051E089B210
:102CB000B1F52F7F04DC0622DFF824335A7048E098
:102CC00089B2B1F5487F04DC0722DFF814335A706B
:102CD0003FE089B2B1F5617F04DC0822DFF8003300
:102CE0005A7036E089B2B1F57A7F04DC0922DFF848
:102CF000F0325A702DE089B240F24D42914203DA2F
:102D00000A22B74B5A7024E089B2B1F5966F03DC02
:102D10000B22B34B5A701CE089B240F2155291421B
:102D200003DA0C22AE4B5A7013E089B2B1F5AF6FE3
:102D300003DC0D22AA4B5A700BE089B240F2DD523F
:102D4000914203DA0E22A64B5A7002E00F22A44BE6
:102D50005A7089B2332903DA0022A14B9A7071E0CC
:102D600089B2652903DA01229D4B9A706AE089B223
:102D7000972903DA02229A4B9A7063E089B2C92933
:102D800003DA0322964B9A705CE089B2FB2903DADE
:102D90000422934B9A7055E089B2B1F5967F03DC1B
:102DA00005228F4B9A704DE089B2B1F5AF7F03DCFD
:102DB00006228B4B9A7045E089B2B1F5C87F03DCDF
:102DC0000722874B9A703DE089B2B1F5E17F03DCC1
:102DD0000822834B9A7035E089B2B1F5FA7F03DCA3
:102DE00009227F4B9A702DE089B240F2272291424E
:102DF00003DA0A227A4B9A7024E089B2B1F5167F81
:102E000003DC0B22764B9A701CE089B240F28B22D5
:102E1000914203DA0C22724B9A7013E089B2B1F539
:102E20002F7F03DC0D226E4B9A700BE089B240F2CB
:102E3000EF22914203DA0E22694B9A7002E00F22D0
:102E4000674B9A7089B21A2903DA0022644BDA7050
:102E500069E089B2332903DA0122614BDA7062E05A
:102E600089B24C2903DA02225D4BDA705BE089B249
:102E7000652903DA03225A4BDA7054E089B27E29BD
:102E800003DA0422564BDA704DE089B2972903DA4F
:102E90000522534BDA7046E089B2B02903DA0622E4
:102EA0004F4BDA703FE089B2C92903DA07224C4B55
:102EB000DA7038E089B2E22903DA0822484BDA7086
:102EC00031E089B2FB2903DA0922454BDA702AE0A6
:102ED00089B2B1F58A7F03DA0A22414BDA7022E027
:102EE00089B2B1F5967F03DC0B223D4BDA701AE014
:102EF00089B2B1F5A37F03DA0C22394BDA7012E004
:102F000089B2B1F5AF7F03DC0D22354BDA700AE0F0
:102F100089B2B1F5BC7F03DA0E22314BDA7002E0E0
:102F20000F222F4BDA70704710B50400200040B21A
:102F3000FFF778FE2B48007810F0FD002949087053
:102F40002848007850F0100026490870B82026491B
:102F5000087026480078C006FBD424480078C0F3E7
:102F60008100C0B20228F8D11D48C3781C4882787D
:102F70001B4841781A480078FFF750FE174864B2A2
:102F800010EB8400807810F007001949087013488E
:102F900064B210EB8400C07810F01F0050F04000C5
:102FA00014490870114800788006FBD50F48007856
:102FB0004006FBD50C48007810F03F000A49087025
:102FC0000A480078C0F38100C0B20328F8D1034852
:102FD00064B230F82400C0B210BD0000940BFF1F93
:102FE000EC0BFF1F01400640004006400640064033
:102FF000044006400540064001B4BDF8000000282A
:1030000005D0BDF80000401EADF80000F5E701B0A6
:10301000704780B5012201211A2000F09FF901229A
:103020000121192000F09AF923211A2000F04CFA0E
:103030002321192000F048FA01BD80B501207A490A
:1030400008600120794908604FF4C870FFF7D4FF89
:1030500000207749086077480068002804D10120E3
:1030600073490860002016E00120714908600020C3
:103070006D4908604FF4C870FFF7BEFF00206B4930
:1030800008606C480068002804D001206849086086
:10309000002000E0012002BD80B5002063490860E7
:1030A0000020614908604FF4C870FFF7A5FF0120B8
:1030B0005E4908604FF4C870FFF79EFF01205A492F
:1030C00008604FF4C870FFF797FF01BD80B500207E
:1030D000564908604FF4C870FFF78EFF0020524930
:1030E00008604FF4C870FFF787FF01204F49086060
:1030F0004FF4C870FFF780FF00204C4908604FF480
:10310000C870FFF779FF01BD80B50020474908600E
:103110004FF4C870FFF770FF0120434908604FF477
:10312000C870FFF769FF0120404908604FF4C8707C
:10313000FFF762FF00203D4908604FF4C870FFF7B9
:103140005BFF01BD80B50020384908600020384988
:1031500008604FF4C870FFF74FFF01203349086043
:103160004FF4C870FFF748FF32480068002807D0C6
:1031700001202F49086000202C490860002006E04B
:1031800001202B490860002028490860012002BD69
:1031900038B5050008242000441EC0B2002818D00D
:1031A000280603D501202049086002E000201E49BE
:1031B00008606D004FF4C870FFF71EFF01201B4927
:1031C00008604FF4C870FFF717FF00201749086028
:1031D000E1E731BD38B50824002500201449086016
:1031E0002000441EC0B2002815D06D0000200F49F9
:1031F00008604FF4C870FFF7FFFE01200B4908601C
:103200004FF4C870FFF7F8FE0A4800680028E7D0BE
:1032100055F00105E4E70120054908600020034955
:103220000860EDB2280032BD6400FE436800FE4332
:10323000E402FE436402FE4370B504000D00002664
:103240002900C9B2200080B200F00AF8002805D198
:10325000761CF6B2142EF3D1002000E0012070BDE0
:1032600038B504000D00FFF7E8FE002801D100206A
:1032700019E04220FFF78CFFFFF764FF002803D11D
:10328000FFF70AFF00200EE02000C0B2FFF780FF2A
:10329000FFF758FF2800C0B2FFF77AFFFFF752FF91
:1032A000FFF7FAFE012032BDF8B504000D0016004C
:1032B00000273200D2B2290089B2200000F00AF8BB
:1032C000002805D17F1CFFB21E2FF2D1002000E0A4
:1032D0000120F2BD70B504000D001600FFF7ADFE31
:1032E000002801D1002037E04220FFF751FFFFF70F
:1032F00029FF002803D1FFF7CFFE00202CE030008B
:10330000C0B2FFF745FFFFF71DFFFFF7C5FEFFF750
:1033100094FE002801D100201EE04320FFF738FF73
:10332000FFF710FF002803D1FFF7B6FE002013E0DF
:10333000ADB2002D0DD0FFF74DFF2070ADB2012DC5
:1033400002D1FFF7E1FE01E0FFF7C0FE641C6D1E35
:10335000EEE7FFF7A1FE012070BD000070B504008C
:103360000D0016004FF480712000C0B200F08AF802
:103370006DB2002D11D14148E4B2611150F8210025
:103380003E49E4B2621151F822104969012214F059
:103390001F039A409143416136E03848E4B261111D
:1033A00050F821003549E4B2621151F82210496900
:1033B000012214F01F039A4011434161F6B2002E1E
:1033C00011D12E48E4B2611150F8210000680121AA
:1033D00014F01F02914088432849E4B2621151F869
:1033E0002210086010E02548E4B2611150F8210075
:1033F0000068012114F01F02914008431F49E4B204
:10340000621151F82210086070BD10B504001B480D
:10341000E4B2611150F82100406914F01F01C84066
:10342000C00703D47B21164800F099F81348E4B292
:10343000611150F82100012114F01F029140C16078
:1034400010BD10B504000D48E4B2611150F8210020
:10345000406914F01F01C840C00703D58C210848FB
:1034600000F07DF80548E4B2611150F821000069D0
:1034700014F01F01C84010F0010010BD800BFF1FA9
:103480009445000010B4294A12684FF40073C0B28A
:103490004409A3401A43254B1A60254AC0B2431180
:1034A00052F82320012310F01F04A340C2F8A030DB
:1034B0001F4AC0B2431152F82320C0B210F01F03BC
:1034C00042F8231010BC704710B4184A12684FF429
:1034D0000073C0B24409A3401A43144B1A60144A43
:1034E000C0B2431152F82320012310F01F04A3405F
:1034F000C2F8A03031F4E0610D4AC0B2431152F875
:103500002320C0B210F01F0352F8232012F4E0620F
:103510001143074AC0B2431152F82320C0B210F041
:103520001F0342F8231010BC70470000388004408D
:10353000F00BFF1FDFF800F0950CFF1FDFF800F025
:10354000B90CFF1FBFF34F8F4648006810F4E060CE
:103550004549084343490860BFF34F8FFEE738B53C
:1035600004000D00002000F08DF82A0021003F48E3
:1035700000F0C0F8002000F0A2F84FF47A7000F0DC
:10358000E6F8F2E738B504000D00210049B2032047
:1035900000F000FA200032BD10B50024042000F035
:1035A00013FA042000F046FA002841D1002000F070
:1035B00069F8042000F03EFA012801D1012004003E
:1035C000002000F07CF82A4800F094F84FF4FA70DC
:1035D00000F0BDF8E4B2012CEBD1042000F02AFA8F
:1035E0000028E6D1042000F025FA002806D10020AA
:1035F00000F065F8642000F0AAF8F3E7042000F07A
:1036000019FA012806D1002000F059F8322000F004
:103610009EF8F3E7174800F06DF8FFF78BFF642082
:1036200000F095F80020FFF789FFFFF78BFFC0E758
:1036300010BD10B510480468012000F023F80120E7
:1036400000F03DF80D48E4B20F2101FB0402E4B2A2
:1036500021000B4800F04EF84FF47A7000F077F834
:10366000EDE700000CED00E00400FA05B0490000B1
:10367000804A0000E449000004ED00E07804FF1FE8
:103680004C49000010B5040064B2022C07DA012294
:103690000121174864B2205CFFF760FE0EE00220B3
:1036A00004002000441E40B2002807D0012201215E
:1036B0000F4864B2205CFFF751FEF2E710BD10B571
:1036C000040064B2022C05DA094864B2205CFFF7FA
:1036D0009CFE0CE0022004002000441E40B20028A2
:1036E00005D0034864B2205CFFF78FFEF4E710BDFD
:1036F0007604FF1F0EB400B582B003A90091024604
:1037000000AB0121034878440A30FCF785FE06BC73
:103710005DF810FB4913000010B50400002C15D013
:10372000B4F1807F03D329210F48FFF718FF002051
:103730000E4908600E48046000200E49086005200C
:103740000A49086009480068C003FBD510BD10B5E0
:1037500004002000441E002804D007480068FFF73A
:10376000DBFFF6E710BD00000446000010E000E0BB
:1037700014E000E018E000E07023FF1F2DE9F8439B
:1037800004000D0064B2002C08D0022C2CD018D3F9
:10379000042C4FD03BD3052C5FD071E0DFF8100232
:1037A000006850F48060DFF8081208604FF4407140
:1037B0000F20FFF767FE4FF440710E20FFF762FE07
:1037C0005EE0DFF8EC01006850F40060DFF8E01123
:1037D00008604FF440714320FFF754FE4FF44071EE
:1037E0004420FFF74FFE4BE0DFF8C401006850F4BF
:1037F0008050DFF8BC1108604FF440716320FFF780
:1038000041FE4FF440716220FFF73CFE38E0DFF8E4
:10381000A001006850F40050DFF8941108604FF4E4
:1038200040715020FFF72EFE4FF440715120FFF7FA
:1038300029FE25E0DFF87C01006850F48060DFF8A5
:10384000741108604FF440714E20FFF71BFE4FF4D7
:1038500040714F20FFF716FE12E0DFF858010068B4
:1038600050F40060DFF84C1108604FF4407189207B
:10387000FFF708FE4FF440718820FFF703FEFFE7D3
:10388000DFF8340164B250F82400C07810F0F3007F
:10389000DFF8241164B251F82410C870DFF8180161
:1038A00064B250F824008078DFF80C1164B251F84B
:1038B0002410887064B2002C02D064B2012C07D1AD
:1038C000DFF8F80000684FF47A714843814606E05B
:1038D000DFF8EC0000684FF47A7148438146280114
:1038E000B9FBF0F00600B6B2B6F5005F02DB41F6B8
:1038F000FF700600B9FBF5F0B6B2B0EB061007009A
:10390000BFB2202F03DBDC212E48FFF728FE2A4818
:1039100064B250F82400007810F0E0008046B6B29F
:10392000300A10F01F0050EA0800234964B251F831
:1039300024100870204864B250F8240046701E48D5
:1039400064B250F82400807A10F0E000804617F04E
:103950001F0050EA0800184964B251F82410887218
:10396000154864B250F82400007C50F088001249D9
:1039700064B251F8241008740F4864B250F824005F
:10398000C07850F00C000C4964B251F82410C87093
:10399000BDE8F183084A40B252F82020127912069D
:1039A000F8D5054A40B252F82020D1717047000086
:1039B0003480044028800440040CFF1F7023FF1F44
:1039C0007823FF1F7446000010B5040064B2082C71
:1039D0000DDA00220021224864B2205CFFF7BEFC11
:1039E00003211F4864B2205CFFF76EFD14E008203D
:1039F00004002000441E40B200280DD00022002107
:103A0000174864B2205CFFF7A9FC0321144864B294
:103A1000205CFFF759FDECE710BD10B5040010481D
:103A200064B2205CFFF70DFD002801D1002000E00A
:103A3000012010BD10B50400200040B2FFF7EDFFDB
:103A400000280AD10A20FFF782FE200040B2FFF7CB
:103A5000E4FF002801D1002000E0012010BD00009B
:103A60001C0CFF1F2DE9F84380460C005FEA9810FC
:103A700010F00700C0B25FEA40194046103810F05D
:103A80003F00C0B2C000050015EB09000700E4B21A
:103A900017EBC400401E0600F6B2FFB2BE420DD3C3
:103AA000002200213800C0B2FFF758FC4FF48171AA
:103AB0003800C0B2FFF7E6FC7F1CEDE7BDE8F183FC
:103AC0002DE9F84F04000D0016001F009DF9288015
:103AD000DDF82C90DDF830A04FFA88F8B8F1000F2F
:103AE00002D15FF0010B11E04FFA88F8B8F1010F35
:103AF00002D15FF0020B09E04FFA88F8B8F1020F2B
:103B000002D15FF0040B01E05FF0100B4FFA88F870
:103B1000B8F1000F05D16748854202D36648A84234
:103B200021D24FFA88F8B8F1010F09D161488542D6
:103B300006D36248A84203D315F00300032812D12C
:103B40004FFA88F8B8F1020F09D15A48854206D3D6
:103B50005B48A84203D315F00300002803D061217D
:103B60005848FFF7FCFCB9F5004F03D363215548D3
:103B7000FFF7F5FC5448006850F002005249086015
:103B80005248006850F0020050490860504864B242
:103B900061010D5064B2600100F1804010F51040E9
:103BA0000661002064B2610101F1804111F510410C
:103BB00088805FFA8BFB64B2600100F1804010F5F1
:103BC0001040A0F814B04FFA88F85FEA082010F40B
:103BD000E0604FFA88F818F00701084364B2610109
:103BE00001F1804111F51041C88048464004400C65
:103BF00064B2610101F1804111F51041C88248466B
:103C00004004400C64B2610101F1804111F51041A2
:103C1000C8833048006830F080002E4908605FFAA1
:103C20008BFB64B2600100F1804010F51040C0F8D9
:103C300008B0002064B2610101F1804111F510412A
:103C4000C8605FEACA7002D4D9F1000000E0002029
:103C500064B2610101F1804111F5104188614CF2BB
:103C60000A0064B2610101F1804111F510418883BD
:103C7000FFB27809313050F08000174964B26054C7
:103C800016493800C0B2FFF7FDFB5946C9B22800FB
:103C9000FFF7E8FE124800680121A140884310495F
:103CA0000860104800680121A14008430D490860E0
:103CB000BDE8F18F10F00F4013F10F4012F10F40EB
:103CC00010F10F40E4460000408004403C80044076
:103CD0000090004000800040001002400001010000
:103CE0000C80004024800040012110F01F02914010
:103CF000794A40B2430942F823107047012110F07D
:103D00001F029140754A40B2430942F823107047A0
:103D100010B504007248046000F030F80028FBD0B1
:103D200000F002F8002010BDE0B5012002904FF431
:103D300016700190002000901C23694802686949B0
:103D40000020FFF7BDFE6848006840084000664953
:103D500008605720FFF7D2FF6448006850F0010068
:103D6000624908600020FFF7BFFF61491B20FFF791
:103D700089FB60491C20FFF785FB07BD1CB50024AB
:103D800000208DF80400FFF744F980211220FFF78E
:103D900053FA002809D1012000900123564A00213E
:103DA0000020FEF756FE002049E03220FFF7CFFC4E
:103DB0000B22012101A8FFF777FA002809D1012081
:103DC000009001234D4A00210020FEF742FE002012
:103DD00035E0012000900123494A00210020FEF730
:103DE00038FE9DF80400212828D100200400A4B248
:103DF000312C19D24348A4B210EB44004178414819
:103E0000A4B210F8140080B2FFF716FA002809D106
:103E10000120009001233C4A00210020FEF719FEFA
:103E200000200CE0641CE2E7012000900123374AE7
:103E300000210020FEF70DFE012000E0002016BD4D
:103E400080B5334890F90000042818D10320304988
:103E500008705720FFF752FF5FF080502D4908602F
:103E60002148006850F001001F4908605FF0805051
:103E7000284908601A4800682749086005E057206B
:103E8000FFF73CFF02202249087001BD01202049B4
:103E90000870704780B504201D4908705FF0FF303E
:103EA0001C4908605720FFF71FFF194890F90000D0
:103EB00001280FD0164890F900000228F5D10420FF
:103EC000134908705FF0FF30124908605720FFF770
:103ED0000BFFEAE701BD000000E100E080E100E047
:103EE000540EFF1F50F00F400C8000402480004013
:103EF00002010A0002010200B8470000FC4700006E
:103F0000404800001004FF1F84480000C84800001B
:103F10007404FF1FA09004401090004000000000B7
:103F200000000000002F0000000007000700001440
:103F30007F147F1400242A7F2A120062640813234E
:103F400000364955225000000503000000001C22E5
:103F50004100000041221C000014083E0814000823
:103F6000083E0808000000A06000000808080808D3
:103F7000000060600000002010080402003E51496B
:103F8000453E0000427F4000004261514946002109
:103F900041454B31001814127F1000274545453923
:103FA000003C4A494930000171090503003649497E
:103FB000493600064949291E000036360000000037
:103FC0005636000000081422410000141414141482
:103FD000000041221408000201510906003249592B
:103FE000513E007C1211127C007F49494936003E47
:103FF00041414122007F4141221C007F4949494102
:10400000007F09090901003E4149497A007F0808FB
:10401000087F0000417F4100002040413F01007FB8
:1040200008142241007F40404040007F020C027F84
:10403000007F0408107F003E4141413E007F090996
:104040000906003E4151215E007F091929460046BC
:10405000494949310001017F0101003F4040403F93
:10406000001F2040201F003F4038403F00631408DD
:1040700014630007087008070061514945430000B8
:104080007F41410000552A552A55000041417F00DB
:1040900000040201020400404040404000000102D0
:1040A0000400002054545478007F484444380038B9
:1040B0004444442000384444487F00385454541841
:1040C00000087E0901020018A4A4A47C007F080453
:1040D00004780000447D4000004080847D00007F23
:1040E000102844000000417F4000007C0418047840
:1040F000007C0804047800384444443800FC24243C
:1041000024180018242418FC007C08040408004823
:104110005454542000043F444020003C4040207C44
:10412000001C2040201C003C4030403C0044281033
:104130002844001CA0A0A07C004464544C441414E7
:1041400014141414DFF800F04F370000DFF800F00B
:104150005F350000F020544908705348007800068D
:10416000FBD5514800787121084201D0002000E0C1
:104170000120704780B54D48006850F400204B493D
:104180000860494800780006FBD5F02046490870D1
:104190000A20FFF7D7FF01BD10B582B00400A4B21A
:1041A0004FF4805000FB04F0009009204049087053
:1041B0009DF802003F4908709DF801003E490870D3
:1041C0009DF800003D490870FFF7C4FF002801D1A9
:1041D00000200EE0A4B2002C0AD15FF0FF327FF085
:1041E00001034FF48161200080B200F003F800E089
:1041F000012016BDF0B583B006000F0014001D00AD
:10420000B6B24FF48050BFB200FB06700190BFB24F
:10421000082097FBF0F101FB1071002903D0EA217F
:104220002748FFF793FFBFB2B7F5805F03DDEC21AE
:104230002348FFF78BFF9DF806001E4908709DF884
:1042400005001D4908709DF804001C490870009481
:104250009DF803001B4908709DF802001A49087078
:104260009DF80100194908709DF800001849087070
:1042700007200F49087000959DF803001549087044
:104280009DF80200144908709DF801001349087058
:104290009DF8000012490870FFF75CFF002801D16B
:1042A000002000E00120FEBD0000024004F00140BB
:1042B00007000240060002400500024004000240E0
:1042C000244500000B0002400A00024009000240A1
:1042D000080002400F0002400E0002400D000240A4
:1042E0000C000240F0B4114E366834000F4E3668B0
:1042F00056F47F060D4F3E600E0616F0706656EAC5
:104300000076170517F470073E431F0417F4702753
:104310003E43074F3E6000263500EDB29D4201D27C
:104320006D1CFAE7014E3460F0BC704700F00140AC
:104330004480044080B500F095F800F02AF800F0C1
:104340000AF8FFF729F9012201210420FFF706F8F6
:1043500000F0A8F8FEE780B50C20FEF7E5FD334934
:104360000860324800684FF47A7148433049086069
:104370002F4800682F490968C1F30361491CB0FB4D
:10438000F1F02D4908605FF4E1310320FFF7F6F901
:1043900001BD2DE9F8432948294988420DD0002064
:1043A0008046B8F5826F08D2254850F82800234986
:1043B00041F8280018F10108F3E7204800F08AF8D6
:1043C000204807002048060020480400A01B804623
:1043D0004046B0F10108002804D030783870761CCF
:1043E0007F1CF5E71A4881461A480500B5EB09001D
:1043F00080464046B0F10108002805D0002089F829
:10440000000019F10109F4E713481449144A531A3A
:1044100098464346B3F10108002B04D00B78037093
:10442000491C401CF5E7BDE8F18300007423FF1F21
:104430007023FF1F448004407823FF1F0000FF1FEC
:10444000000000001004FF1FB41900000822000043
:10445000540EFF1FCC23FF1F640CFF1F44410000BC
:104460003443000080B500F008F80C4800884FF68F
:10447000FE7108400949088001BDEFF3118072B652
:104480004CF22051064A11804DF62811044A118041
:10449000C0B2002800D162B670470000002005407D
:1044A0000E20054080B50848FFF732FC0749672019
:1044B00000F021F80649102000F01DF8FFF7EAFC93
:1044C000FEF716FBFAE700BF580EFF1F0D4900006C
:1044D0002F49000010B504004FF4007094FBF0F178
:1044E00001FB1041002903D01E210B48FFF737F8CC
:1044F0000A48046010BD38B504000D000748006884
:104500000749884203D030210348FFF728F80448C0
:1045100064B240F8245031BD5047000008ED00E07F
:104520000000FF1F453A5C5A68694E656E67436834
:10453000655CC9BDCDE2D7CAC1CF5CC9BDCDE24B78
:104540003630B2CEBFBCB4FAC2EB56352E33A3A878
:10455000D6A7B3D64658A1A2464EBACD444E5AA3CA
:10456000A95CCAE9CDE2B5C4B2CEBFBCC0FDB3CC34
:104570005C7A65745F6B36305F53575C4368697073
:104580005C7372635C4D4B36305F666C6173682E92
:1045900063000000453A5C5A68694E656E6743687F
:1045A000655CC9BDCDE2D7CAC1CF5CC9BDCDE24B08
:1045B0003630B2CEBFBCB4FAC2EB56352E33A3A808
:1045C000D6A7B3D64658A1A2464EBACD444E5AA35A
:1045D000A95CCAE9CDE2B5C4B2CEBFBCC0FDB3CCC4
:1045E0005C7A65745F6B36305F53575C4368697003
:1045F0005C7372635C4D4B36305F6770696F2E631E
:1046000000000000453A5C5A68694E656E67436871
:10461000655CC9BDCDE2D7CAC1CF5CC9BDCDE24B97
:104620003630B2CEBFBCB4FAC2EB56352E33A3A897
:10463000D6A7B3D64658A1A2464EBACD444E5AA3E9
:10464000A95CCAE9CDE2B5C4B2CEBFBCC0FDB3CC53
:104650005C7A65745F6B36305F53575C4368697092
:104660005C7372635C4D4B36305F5379735469638E
:104670006B2E6300453A5C5A68694E656E67436805
:10468000655CC9BDCDE2D7CAC1CF5CC9BDCDE24B27
:104690003630B2CEBFBCB4FAC2EB56352E33A3A827
:1046A000D6A7B3D64658A1A2464EBACD444E5AA379
:1046B000A95CCAE9CDE2B5C4B2CEBFBCC0FDB3CCE3
:1046C0005C7A65745F6B36305F53575C4368697022
:1046D0005C7372635C4D4B36305F756172742E6330
:1046E00000000000453A5C5A68694E656E67436891
:1046F000655CC9BDCDE2D7CAC1CF5CC9BDCDE24BB7
:104700003630B2CEBFBCB4FAC2EB56352E33A3A8B6
:10471000D6A7B3D64658A1A2464EBACD444E5AA308
:10472000A95CCAE9CDE2B5C4B2CEBFBCC0FDB3CC72
:104730005C7A65745F6B36305F53575C43686970B1
:104740005C7372635C4D4B36305F646D612E630049
:10475000453A5C5A68694E656E674368655CC9BDD9
:10476000CDE2D7CAC1CF5CC9BDCDE24B3630B2CEA7
:10477000BFBCB4FAC2EB56352E33A3A8D6A7B3D626
:104780004658A1A2464EBACD444E5AA3A95CCAE9E6
:10479000CDE2B5C4B2CEBFBCC0FDB3CC5C7A65740B
:1047A0005F6B36305F53575C436869705C7372634C
:1047B0005C6D6973632E63005343434220777269D3
:1047C00074652064617461206572726F72212020AB
:1047D00020202020202020202020202020202020D9
:1047E00020202020202020202020202020202020C9
:1047F0002020202020202020000000005761726E21
:10480000696E673A6661696C656420746F207265D1
:1048100061642049442120202020202020202020C5
:104820002020202020202020202020202020202088
:1048300020202020202020202020202000000000F8
:1048400047657420494420737563636573732C2036
:104850002020202020202020202020202020202058
:104860002020202020202020202020202020202048
:104870002020202020202020202020202020202038
:10488000000000005761726E696E673A6661696C7C
:10489000656420746F20777269746520726567693A
:1048A000736572212020202020202020202020201D
:1048B00020202020202020202020202020202020F8
:1048C00020202020000000004F563737323520527C
:1048D0006567697374657220436F6E6669672053FC
:1048E0007563636573732120202020202020202001
:1048F00020202020202020202020202020202020B8
:1049000020202020202020200000000038B5002496
:104910000C4805685FF0FF300A4908601B2004005E
:1049200035FA04F0C00701D5FFF78AFA31BD80B52A
:104930000548006850F0010003490860FFF7A6FA37
:1049400001BD0000A0900440248000400A2A2A2AC9
:104950002A64656661756C745F69737220656E7434
:1049600065726564206F6E20766563746F722025B2
:10497000642A2A2A2A2A0A0A257320496E74657233
:10498000727570740000000010B507497944183141
:10499000064C7C44163404E00A68081D5118884708
:1049A0000146A142F8D110BD2C00000038000000E3
:1049B000417373657274696F6E206661696C6564BA
:1049C00020696E202573206174206C696E65202536
:1049D000640A000033C6FFFF78150000540EFF1F65
:1049E000000000000ABDF8D0D0BDE2CBF8B2D9D7A4
:1049F000F7A3ACC7EBD6D8D0C2CBA2C8EBB9CCBC1E
:104A0000FE0000004EF68851CEF20001086840F426
:104A1000700008604FF00070E1EE100A704700006F
:104A200000F00BF8002801D0FFF7AEFF0020C046D1
:104A3000C046FFF737FD00F002F80120704700F094
:104A400001B800000746384600F002F8FBE7000016
:104A50002021090326311820ABBEF9E738B50446FA
:104A60000D46284600F006F8A84218BF002420464C
:104A700032BD00000149FEF785BD00BF240CFF1FB9
:104A80000ABDF8C8EBCBC0D1ADBBB7B5C8B4FDA368
:104A9000A1000000C046C046FFF7B4FFFFF7C0FF0B
:104AA0000000000000000000000000000000000006
:104AB000000000000000000000000000FFFFFFFFFA
:104AC000FFFFFFFF000000000000000000000000EA
:104AD00000000000000000000000000000000000D6
:104AE0000000000000000000FFFFFFFFFFFF0000CC
:104AF00000000000000000000000000000000000B6
:104B000000000000000000000000000000000000A5
:104B10000000000000000000000000000000000095
:084B200000000000000000008D
:0400000500004A9518
:00000001FF
