:10000000F8FF0020110400007F3900007F39000054
:100010007F3900007F3900007F3900007F39000000
:100020007F3900007F3900007F3900007F390000F0
:100030007F3900007F3900007F3900007F390000E0
:100040007F3900007F3900007F3900007F390000D0
:10040000FFFFFFFFFFFFFFFFFFFFFFFFFEFFFFFFFD
:1004100062B605F037F9FEE72DE9F04FA1B082464C
:10042000002017461D4602910B900DF1440B6FF012
:1004300000490AE017F8011B0298D04702900028F3
:1004400000F0A3820B98401C0B90387808B90B98E9
:100450009DE22528EED10020059006900790089097
:1004600009900A9001E040F0010017F8011F2029CF
:10047000F9D023290DD02B2904D02D2906D03029DD
:100480000AD00CE040F0020080B2EEE740F0040039
:10049000FAE740F00800F7E740F01000F4E72A29F7
:1004A0000ED12968296051F8042B29600D92002A89
:1004B00004D5514240F004000D9180B27F1C11E040
:1004C00000210D9109E00D99494505D001EB81030B
:1004D00002EB430130390D917F1C3A78A2F13001D3
:1004E0000A29F0D339782E2903D04FF0FF310C912F
:1004F0001DE017F8011F2A2907D1296829607F1CF0
:1005000051F8042B29600C9211E000210C9109E0B4
:100510000C99494505D001EB810302EB43013039C9
:100520000C917F1C3A78A2F130010A29F0D3ADF882
:1005300038000FF6B820397800F076FD08B117F8CA
:10054000010B8DF83A009DF83A00682802BF39780F
:100550006829622005D06C2804BF38786C2803D144
:1005600071208DF83A007F1C11A8049017F8014BF8
:10057000B4F1250024D02038022840F2C680133878
:1005800000F0EC800B3800F05081401E00F0258117
:10059000401E022840F2B980001F00F01E81401F5B
:1005A00000F08480401E00F0D980401E29D0C01E7B
:1005B0000CD0801E00F0D280C01E00F0CF803EE143
:1005C0000120059025208DF8440044E1286828602A
:1005D00050F8044B28600394DDF83080B8F1000F28
:1005E00004D5204600F02CFD804607E0424600215D
:1005F000204600F041FD08B1A0EB0408CDF81880BA
:1006000029E1296829604FF03C0851F8040B296062
:100610000021CDE9000111A80390DDE90001049C4F
:1006200011B908B90C9ACAB10206120FA0EB021256
:100630003032A8F1010ED2B2F0463A2AA8BF2732D2
:1006400000090EF8042040EA0170090908BF0028DB
:1006500004D0039A08EB04039A42E5D308EB0400A4
:100660000390C8F13C010C980691814209DA401AC6
:1006700008904FF6EF71BDF838000840ADF838002B
:10068000E9E0002840F1E7809DF8380000F0140010
:10069000102840F0E0800D98059A801A089A801A78
:1006A000401A0128C0F2D7800890D4E09DF83A00A3
:1006B00062281AD0682806D06A280CD06C281CD072
:1006C000712808D019E02868286050F8041B2860B9
:1006D0000B980880BFE02868286050F8042B286039
:1006E0000B98C117C2E90001B5E02868286050F8EE
:1006F000041B28600B980870ADE02868286050F84B
:10070000041B28600B980860A5E02868C01D20F035
:1007100007022A60D2E9000108322A60CDE900010F
:10072000002903D5012005902D200CE0BDF83800EC
:10073000810703D5012005902B2004E0C00704D5D4
:100740000120059020208DF84400059911A8081873
:100750000390214600A800F0D7F97CE09DF83A20EC
:100760006C2A0DD0712A18BF6A2A09D12868C01DC9
:1007700020F007032B60D3E9000108332B6005E06C
:100780002968296051F8040B29600021CDE9000196
:10079000682A08BF80B207D0622A08BFC0B203D05F
:1007A000742A18BF7A2A02D10021CDE900019DF8F0
:1007B0003800000730D5DDE90001002908BF002816
:1007C0002AD044F02000782826D130208DF844002B
:1007D0008BF80140022005901EE029469DF83A0062
:1007E00000F0D8F8CDE90001002904DA0598411C91
:1007F00005912D210EE0BDF83800810704D505983C
:10080000411C05912B2105E0C00705D50598411C29
:100810000591202100F80B10059911A808180390E4
:10082000214600A800F0EDF815E0012005902868A9
:10083000286050F8041B28608DF844100BE001205C
:10084000059025208DF84400002C04D00598411C0B
:10085000059100F80B400D980599401A0899401A27
:100860000699401A0999401A0799401A0A99A0EB6B
:1008700001089DF8380040070FD420208DF8400073
:10088000002408E0012310AA00A9504600F097FBBD
:1008900000287AD1641C4445F4DB059C11AE0AE0C3
:1008A00016F8011B0298D047029000286DD00B98D3
:1008B000401C0B90641E002CF2D130208DF84000BB
:1008C0000026089C08E0012310AA00A9504600F069
:1008D00076FB002859D1761CA642F4DB069C039EC9
:1008E0000AE016F8011B0298D047029000284CD06D
:1008F0000B98401C0B90641E002CF2D130208DF818
:1009000040000026099C07E0012310AA00A95046D8
:1009100000F055FBC8BB761CA642F5DB0398069990
:10092000079C0E1809E016F8011B0298D0470290A8
:1009300058B30B98401C0B90641E002CF3D1302050
:100940008DF8400000260A9C07E0012310AA00A9A8
:10095000504600F034FBC0B9761CA642F5DB9DF88A
:10096000380040077FF571AD20208DF8400000244D
:1009700000E0641C4445BFF668AD012310AA00A93D
:10098000504600F01CFB0028F3D04FF0FF3021B0A0
:10099000BDE8F08F622826D068281DD06A2808D0CC
:1009A0006C2827D0712804D0742823D07A280CD042
:1009B00020E00868C01D20F007000860D0E900238F
:1009C000083008601946104670470A680A6052F8F5
:1009D000040B0A60002170470A680A6052F8040B91
:1009E0000A6000B20BE00A680A6052F8040B0A6061
:1009F00040B204E00A680A6052F8040B0A60C117AA
:100A000070472DE9FA4E05460A462F696F2A08BF3E
:100A1000082405D041F02000782814BF0A241024AF
:100A2000D5E900013C2681468A46642A18BF692A16
:100A300005D1002903DAD9F100096AEB4A0ABAF1B3
:100A4000000F08BFB9F1000F0CD1286B50B9082C6A
:100A500036D195F83800000732D530203B2687F88C
:100A60003B002DE0E31748465146224600F030FB9C
:100A7000A4FB0023A9EB02023032A6F1010BD2B293
:100A80005E463A2A03DB9DF80030513B9A180BF87A
:100A9000072081465FEA010A08BFB9F1000F03D0C1
:100AA000E868F1198842DDD3082C09D195F838009F
:100AB000000705D5F05D302802D0761E3020F055B5
:100AC000C6F13C00A861F119E960296B884208DA97
:100AD000081A28624FF6EF71288F08402887BDE872
:100AE000F38E00290ED595F8381001F01401102965
:100AF00008D1696B6A69891A2A6A891A081A012851
:100B0000A8BF2862BDE8F38E2DE9F34F8BB0D0E982
:100B10000089006B01AF002848BF062005D404BF40
:100B200041F02000672802D101200B99086340F2B0
:100B3000FF720B984168C1F30A50904220D108031C
:100B400002BF0B98006800280AD10B990320886126
:100B50009DF8300061381A2858D30FF2A44109E0FB
:100B60000B99032088619DF8300061381A284AD318
:100B70000FF284410B98C068032200F021FB00E1D2
:100B8000012807DA0B9800F056FB012802DB00234E
:100B90000026EDE00B9A526840F2FE3161F31E52DE
:100BA0000B994A6040F2FE31461A404649460022FF
:100BB000002300F061FB38BF89F0004936B247F2EC
:100BC000975070434949DFF828B190FBF1F636B2EF
:100BD000C6F107079246012F1BDBF80707D55246DF
:100BE0005B464046494600F05FFB804689467F10E1
:100BF0005046594652465B4600F056FB82468B46AD
:100C0000002FEAD126E00FF2EC31B3E70FF2EC311E
:100C1000B0E77F420024374D12E0F80707D552466F
:100C20005B462046294600F03FFB04460D467F10F8
:100C30005046594652465B4600F036FB82468B468C
:100C4000002FEAD14046494622462B4600F0FEFBE3
:100C5000804689469DF8300040F02005662D0CBF87
:100C600006F10A0006200B99096B4718142FA8BF3C
:100C7000132730208DF804000DF10504DFF878B05B
:100C8000012F3BDB4046494600F004FD014604F1DC
:100C9000080204234FF00A0CB1FBFCFC0CEB8C04A3
:100CA000A1EB4401303102F8011D0A21BCFBF1FE29
:100CB0000EEB8E04ACEB44043034714602F8014D67
:100CC0005B1EE7D1083F02F10804012FD8DB00F0DA
:100CD000F7FC02460B464046494600F0FFFC002266
:100CE0005B4600F0E1FA80468946CBE7A08601002A
:100CF000000024400000F03F84D797410DF105002B
:100D0000201A0DF1050702E0401E761E7F1C39787F
:100D10003029F9D0662D02D136B2711C03E0652D61
:100D20000CBF012100210B9A126B8B181BB2984249
:100D3000B8BF03461BB219001AD4814204DAC85D59
:100D40003528A8BF392000DA3020CA19521E00E029
:100D50005B1E12F80159491E8542F9D0392802D18B
:100D6000C85D401CC855002902D57F1E5B1C761C3F
:100D700036B29DF830100B9800961BB23A4600F040
:100D800003F80DB0BDE8F08F2DE9F04786B00646B8
:100D90008A4690461D4600F07EFD406A376B90F80B
:100DA0000090012D02DA01250FF258284AF02000A8
:100DB000BDF93840662808BF641C13D0672840F08E
:100DC000888014F1040F73DBBC4271DA96F83800A6
:100DD000641C000702D4BD42B8BF2F4624B23F1B9B
:100DE00048BF0027F068B16924B2012C21DA302312
:100DF0004A1C0B54012F03DA96F83810090702D564
:100E000002F80090521CB261E742B8BF7C4224B2A3
:100E10006142E7197162AF42B8BF3D462DB2F5613C
:100E20002A46B3694146181800F0CAF9781BB06227
:100E3000AEE00818A54216DA2A46414600F0C0F98D
:100E4000B1696918B161601B7062012F03DA96F80D
:100E50003800000705D5F06801F80090F069401CE3
:100E6000F061B76294E02246414600F0A9F9B0690A
:100E700020182D1B012F03DA96F83810090703D527
:100E8000F16800F80190401C2DB2B061AF42B8BFCC
:100E90003D46F068B3692DB22A4604EB08011818E4
:100EA00000F08EF9B0692818B061781B70626FE0AD
:100EB000BD4204DA96F83810090758BF2F467F1E46
:100EC00048BF0027BAF1670F0CBF4FF0650A4FF01B
:100ED000450AB169F06818F8013B0B544A1C012F10
:100EE00005DA96F83810090758BFB26115D502F82F
:100EF0000090531CB361012F0FDB6D1E2DB2AF426A
:100F0000B8BF3D462DB22A464146181800F058F9A0
:100F1000B0692818B061781B7062F068B16901EBA4
:100F20000008200008F801AB03D42B2008F8010BBF
:100F300003E02D2108F8011B6442002502AF08E000
:100F40000A2200A800F0C0FC019807F8010B6D1CF4
:100F5000009C21B20129F3DA022D06DA4AF02000C2
:100F6000652804BF302008F8010B4DB9302008F87F
:100F7000010B07E06D1E02A8285C303008F8010B59
:100F8000012DF7DAF068B1690818A8EB0000F061EC
:100F900096F8380000F0140010280DD17069B1697E
:100FA0000818716A0818F1690818B16A0818716B95
:100FB0008842BCBF081A306206B0BDE8F087F8B5B9
:100FC00004460D4616461F46002004E0E86A401C11
:100FD000E8627F1E002047B116F8011BA868A047F1
:100FE000A8600028F2D14FF0FF30F2BD686A6C743F
:100FF0007A4C00006E616E004E414E00696E6600D4
:10100000494E4600300050F8041B61B150F8042BE3
:10101000D30744BFA9F101039A18002342F8043B07
:10102000091FFAD1EFE770470278C9B28A421AB1B4
:101030001CBF10F8012FF9E718BF00207047FF0010
:1010400000F10103810704D010F8011B89B1810769
:10105000FAD10268B2F10131914311F0803F04BF2F
:1010600050F8042FF6E710F8011B11B110F8011B1E
:10107000FBE7C01A704701FEC9B2830706D0521EB3
:1010800022D310F8013B9942F7D11FE0083A13D35D
:1010900002F1040241EA012141EA014150F8043B16
:1010A000121F21BF4B40A3F1013C2CEA030C1CF0A2
:1010B000803FF3D0C9B2001F083210F8013B521E26
:1010C00028BF91EA030FF8D818BF0120401E7047CF
:1010D0001B4213D1094236D12AB18446B0FBF2F04B
:1010E00002FB10C2704700F0F7BBFCD300220023C4
:1010F00070470B000200002100207047904271EB06
:10110000030CF6D370B5B1FA81F4B3FA83F52C1B56
:10111000A340C4F1200532FA05F63343A2405FF044
:101120000046E64002E05B085FEA3202841A71EB97
:10113000030524BF204629467641F4D302000B0064
:101140003000002170BD012ACFD970B5140C20D019
:10115000B1FA81F4B2FA82F5C4F120046419B4F151
:101160002006D6D3B2405FF00044F440002502E0F0
:1011700052085FEA3303C61A71EB020E24BF3046F1
:10118000714664416D41F3D302000B002000290039
:1011900070BD0C46B1FBF2F102FB11452D0445EA8E
:1011A0001045B5FBF2F402FB145580B240EA054548
:1011B000B5FBF2F002FB105240EA044070BDFE01A4
:1011C00062B38B0708D0521E11F8013B00F8013BB7
:1011D00000F024808B07F6D1830740F0208000BF09
:1011E000103A07D330B4B1E83810103AA0E83810FC
:1011F000F9D230BC530724BFB1E80810A0E80810AA
:1012000044BF51F8043B40F8043BD20724BF31F8F7
:10121000022B20F8022B44BF0B7803707047083A6A
:1012200007D3B1E80810083A40F8043B40F804CB73
:10123000F7D25307E4E730B4436803F000420121DA
:101240001B031B0B436004BF0368002B08D10DE098
:101250000368DD0F45EA440444605B000360491EF7
:101260004468E302F4D523031B0B436043681A432D
:101270004260084630BC70474FF4001C1CEB410F25
:1012800094BF1CEB430F09E041EA030C50EA4C0CFD
:1012900052EA0C0C03D2994208BF9042704714BF27
:1012A0008B42824270470000B0B581EA030C0CF01B
:1012B000004C40F2FF7515EA11541DBF15EA135793
:1012C000AC42AF4239E0E41923EA455343F48013BA
:1012D000C90241F0004141EA505EC7021100A7FB7C
:1012E000020200284FF00000EEFB01204FF0000149
:1012F000E3FB072118BF42F00102401800214941D9
:10130000E3FB0E01A4F580640F0302D252004041BA
:10131000494154F101046CDD470872F1004250F17B
:10132000000051EB0451A1F580115CBF41EA0C01B2
:10133000B0BD4CEA05510020B0BD05EA1357AC42E0
:1013400014BFAF4241E050EA410E1CBF52EA430EC7
:1013500002E061460020B0BD24423C441BD15FEA5C
:10136000070EF6D0090302BF01460020AEF1140EAD
:10137000B1FA81F7AEEB070401FA07FE0C37C7F1AB
:10138000200100FA07F7C8404EEA000E23EA455351
:1013900043F48013A2E733F00043B3FA83F704BFAA
:1013A000B2FA82FE77440B3FE41BB7F1200E2FBF49
:1013B00002FA0EF3BB40C7F1200E22FA0EFE38BF30
:1013C00043EA0E03BA40641C82E750EA410E14BFA0
:1013D00052EA430E6FF000014FF4001717EB430F72
:1013E0008ABF194617EB410FB5E74CEA05510020BB
:1013F000B0BDD4F10104B4F120070FDAC4F1200725
:10140000520828BF42F0010210FA07F501FA07F767
:10141000E1BF2A43E0403843E1400FE0352C98DC3F
:10142000C7F1200452EA400220FA07F218BF42F046
:10143000010231FA07F0A1400A43002172F1004293
:1014400050F1000051EB0C01B0BD0000F0B540F2CE
:10145000FF7581EA030C0CF0004C15EA11541DBF16
:1014600015EA1357AC42AF42E5E0BC41C1F31301AA
:10147000C3F31303801A994143F4801304D2641E0A
:101480004000494180185941C90241EA5051B1FB1D
:10149000F3F603FB1611A2FB0675D7EBC020A9419A
:1014A00002D2761E80185941C90241EA5051B1FB5F
:1014B000F3FE03FB1E11A2FB0E75D7EBC020A94162
:1014C00003D2AEF1010E80185941890241EA9051D0
:1014D000760546EA8E2EB1FBF3F603FB1611A2FB4E
:1014E0000675D7EB8020A94102D2761E801859419B
:1014F000C90241EA50514EEA060EB1FBF3F603FB76
:101500001611A2FB0675D7EBC020A94102D2761EA8
:1015100080185941C90241EA5051B1FBF3F703FB6E
:101520001711A2FB0735D3EBC020A94167F10007D3
:101530000CBF004247F0010766F3D5274FEA1E3182
:10154000B80814F5806412DDBD0775F1004250EB58
:101550000E5051EB045111F5801F5CBF41EA0C01A4
:10156000F0BD4CF07F6141F0E0410020F0BDBD07CF
:101570006D0840EA0E5041F48011D4F10104B4F139
:1015800020060ADAC4F120060200E04001FA06F360
:10159000E1401843B24015430EE0342C13DCC6F191
:1015A000200445EA40056D0820FA06F2154321FAA9
:1015B00006F0A1400D43002175F1004250F10000FA
:1015C00051EB0C01F0BD00205FEA0C01F0BDCFB97A
:1015D00092185B41B3FA83F704BFB2FA82F6BF19DF
:1015E0000B3FB7F120062FBF02FA06F3BB40C7F14D
:1015F000200622FA06F638BF3343BA401CB1E4197C
:10160000641E33E77F4231F00041B1FA81F404BF38
:10161000B0FA80F6A4190B3CB4F120062FBF00FAF3
:1016200006F1A140C4F1200620FA06F638BF314386
:10163000A0403C1B1AE7AC421ABF05EA1357AF4261
:1016400012E050EA41061CBF52EA4306BFE750EAE7
:101650004107304661461CBF41EA0551F0BD52EAE0
:10166000430C08BFC143F0BD00204FF4001616EB39
:10167000410F98BF16EB430F08BF16EB410F24BF75
:10168000C14305E016EB430F0CBF61464CEA055120
:10169000F0BD0000400D40EAC120490080F00D80FF
:1016A00040F00040490DA1F58061491C05D4D1F1FD
:1016B0001F0154BFC840C01770474FF0000070476B
:1016C000010000BF09D0B0FA80F18840C91CC1F503
:1016D0008461090501EBD0214005704770B44FF0DB
:1016E000004591EA030F44BF6B4000F0F7B800BF1C
:1016F000841A71EB030604D26E40001BB14112192B
:1017000073414FF4001C1CEB410F34BF7CEB4306CC
:1017100084E00C0DA4EB1356362E7DDC012E43DC49
:1017200045EAC32343EA525312BFD20292025B0836
:10173000240545EAC12141EA5051D2EBC02099412C
:1017400025D407D1B0FA80F610FA06F164D0002053
:10175000203608E0B1FA81F6B140C6F1200220FA45
:1017600002F21143B0404FEAF474B4EB465434F043
:1017700001064FEA74040AD8D6F50016760D04F077
:101780000044F04061FA06F25040F1404840C00A7F
:1017900040EA415021F0004128BF5FEA500550F176
:1017A000000044EBD12137E045EAC323DB0A45EAD8
:1017B000C121C90AB6F120050EDD42EA0242120C2F
:1017C000C5F1200603FA06F6EB4042EA06056D4233
:1017D000984161F100010DE062FA06F5F2405540D2
:1017E00063FA06FC82EA0C02F3405A406D429041D3
:1017F00061EB030111F4801F05D1641E620502D064
:101800006D004041494121F48011430875F10043C6
:1018100050F1000041EB045170BC70471CEB410FCC
:1018200015D223F0004352EA43060BD04FEA4C0C8A
:10183000BCEB410F04D80C0D661E342EB7DDEBE770
:10184000801A994150EA410608BF0021E4E708BF29
:101850001CEB430F28BF6FF00001DDE780B5134894
:1018600000F0A6F80FF24801016041608160C1609C
:101870000161416181610FF23C0242628162C16299
:10188000016341630FF2300282630FF23402C263DC
:101890000164416401BD10B5044800F089F80446B4
:1018A000206808B9FFF7DAFF204610BDF423FF1FB8
:1018B000000000002E00000066616C7365000000EF
:1018C000747275650000000091FBF2F303FB1211C6
:1018D000C0E900317047000070470000841A71EBC6
:1018E000030603D2001BB141121973414FF4001CCF
:1018F0001CEB410F34BF7CEB430443E00C0DA4EB25
:101900001356352E50DC45EAC323DB0A45EAC121D4
:10191000C912B6F120050DDD63FA05F6EB4086EA43
:101920000305124218BF45F00105C01851F100012E
:101930000CD213E062FA06F5F2405540F3415A40EA
:10194000B340F3405A408018594107D349085FEA31
:1019500030005FEA350528BF45F0010501F580112B
:10196000420875F1004250F1000041EB045170BC97
:101970004FF4001C1CEB410F38BF70470020090DCD
:10198000090570471CEB410F10D252EA43060BD0F9
:10199000BCEB410F05D80C0DAB43661E342EB5DDF4
:1019A00002E0AB438018594170BC704770BC70476F
:1019B0007047000000000000000000000000000070
:1019C0000000000000000000000000000000000017
:1019D00000000000000000000000F800000000000F
:1019E0000000000000000000000033003000000094
:1019F00000000000000010000C00060010000C00A9
:101A000006000000000000000000000000000000D0
:101A1000000000004000C00078004000C0007800D6
:101A20004000000004003F00040004003F000400E8
:101A300004000000000070008800FC000800300076
:101A400000000000000018002000FF0021001E0020
:101A500000000000F0000800F0000000E0001800A6
:101A600000000000000021001C0003001E002100F7
:101A70001E0000000000F000080088007000000058
:101A8000000000001E002100230024001900270090
:101A900021001000100016000E00000000000000E1
:101AA0000000000000000000000000000000000036
:101AB00000000000000000000000E000180004002A
:101AC00002000000000000000000070018002000D5
:101AD000400000000000020004001800E0000000C8
:101AE0000000000000004000200018000700000077
:101AF00000000000400040008000F0008000400036
:101B0000400000000200020001000F00010002007E
:101B100002000000000000000000F00000000000D3
:101B2000000000000100010001001F000100010091
:101B300001000000000000000000000000000000A4
:101B4000000000008000B0007000000000000000F5
:101B50000000000000000000000000000000000085
:101B60000000000000000100010001000100010070
:101B70000100010000000000000000000000000063
:101B800000000000000030003000000000000000F5
:101B90000000000000000000000000008000600065
:101BA000180004000000600018000600010000009A
:101BB000000000000000E000100008000800100015
:101BC000E000000000000F001000200020001000C6
:101BD0000F000000000010001000F80000000000DE
:101BE000000000000000200020003F002000200036
:101BF00000000000000070000800080008008800D5
:101C000070000000000030002800240022002100A5
:101C10003000000000003000080088008800480004
:101C200030000000000018002000200020001100FB
:101C30000E00000000000000C00020001000F800AE
:101C400000000000000007000400240024003F0002
:101C5000240000000000F800080088008800080048
:101C600008000000000019002100200020001100E1
:101C70000E0000000000E00010008800880018003E
:101C80000000000000000F001100200020001100E3
:101C90000E0000000000380008000800C8003800EE
:101CA000080000000000000000003F0000000000ED
:101CB0000000000000007000880008000800880094
:101CC0007000000000001C00220021002100220002
:101CD0001C0000000000E0001000080008001000D8
:101CE000E00000000000000031002200220011008E
:101CF0000F000000000000000000C000C000000055
:101D00000000000000000000000030003000000073
:101D10000000000000000000000080000000000043
:101D200000000000000000008000600000000000D3
:101D300000000000000000008000400020001000B3
:101D4000080000000000010002000400080010006C
:101D500020000000400040004000400040004000E3
:101D6000400000000400040004000400040004001B
:101D70000400000000000800100020004000800067
:101D80000000000000002000100008000400020015
:101D90000100000000007000480008000800080072
:101DA000F0000000000000000000300036000100DC
:101DB00000000000C0003000C8002800E80010004B
:101DC000E000000007001800270024002300140092
:101DD0000B00000000000000C0003800E000000020
:101DE0000000000020003C00230002000200270049
:101DF000380020000800F800880088008800700083
:101E00000000000020003F00200020002000110002
:101E10000E000000C00030000800080008000800A4
:101E200038000000070018002000200020001000EB
:101E3000080000000800F800080008000800100072
:101E4000E000000020003F002000200020001000E3
:101E50000F0000000800F80088008800E800080073
:101E60001000000020003F00200020002300200080
:101E7000180000000800F80088008800E80008004A
:101E80001000000020003F002000000003000000C0
:101E900000000000C0003000080008000800380002
:101EA00000000000070018002000200022001E0093
:101EB000020000000800F800080000000000080010
:101EC000F800080020003F0021000100010021006F
:101ED0003F002000000008000800F800080008008B
:101EE000000000000000200020003F002000200033
:101EF000000000000000000008000800F8000800D2
:101F000008000000C0008000800080007F0000000A
:101F1000000000000800F8008800C0002800180039
:101F20000800000020003F002000010026003800CB
:101F3000200000000800F800080000000000000079
:101F40000000000020003F002000200020002000B2
:101F5000300000000800F800F8000000F800F80069
:101F60000800000020003F0000003F0000003F008C
:101F7000200000000800F8003000C0000000080049
:101F8000F800080020003F002000000007001800B3
:101F90003F000000E00010000800080008001000EA
:101FA000E00000000F0010002000200020001000C2
:101FB0000F0000000800F8000800080008000800F2
:101FC000F000000020003F0021000100010001009E
:101FD00000000000E00010000800080008001000E9
:101FE000E00000000F00180024002400380050001A
:101FF0004F0000000800F800880088008800880072
:102000007000000020003F002000000003000C00D2
:102010003000200000007000880008000800080060
:1020200038000000000038002000210021002200BC
:102030001C000000180008000800F8000800080054
:10204000180000000000000020003F0020000000F9
:10205000000000000800F800080000000000080070
:10206000F800080000001F002000200020002000D1
:102070001F00000008007800880000000000C80071
:102080003800080000000000070038000E000100C2
:1020900000000000F80008000000F8000000080040
:1020A000F800000003003C000700000007003C00AF
:1020B000030000000800180068008000800068002D
:1020C00018000800200030002C00030003002C0042
:1020D0003000200008003800C8000000C8003800A8
:1020E000080000000000000020003F002000000069
:1020F000000000001000080008000800C8003800B8
:1021000008000000200038002600210020002000E8
:1021100018000000000000000000FE0002000200A5
:10212000020000000000000000007F0040004000AE
:102130004000000000000C003000C0000000000063
:102140000000000000000000000001000600380050
:10215000C00000000000020002000200FE000000BB
:102160000000000000004000400040007F00000030
:102170000000000000000000040002000200020055
:10218000040000000000000000000000000000004B
:10219000000000000000000000000000000000003F
:1021A000000000008000800080008000800080002F
:1021B0008000800000000200020004000000000017
:1021C000000000000000000000000000000000000F
:1021D00000000000000000008000800080008000FF
:1021E000000000000000190024002200220022004C
:1021F0003F0020000800F800000080008000000080
:102200000000000000003F0011002000200011002D
:102210000E00000000000000000080008000800030
:102220000000000000000E0011002000200020002F
:102230001100000000000000000080008000880005
:10224000F800000000000E00110020002000100027
:102250003F0020000000000080008000800080001F
:102260000000000000001F002200220022002200C7
:1022700013000000000080008000F000880088004B
:10228000880018000000200020003F0020002000EF
:10229000000000000000000080008000800080003E
:1022A0008000000000006B009400940094009300F4
:1022B000600000000800F80000008000800080003E
:1022C0000000000020003F0021000000000020006E
:1022D0003F002000000080009800980000000000EF
:1022E000000000000000200020003F00200020002F
:1022F000000000000000000000008000980098002E
:10230000000000000000C0008000800080007F000E
:10231000000000000800F8000000000080008000BD
:102320008000000020003F00240002002D0030004B
:1023300020000000000008000800F8000000000075
:10234000000000000000200020003F0020002000CE
:10235000000000008000800080008000800080007D
:102360008000000020003F00200000003F0020000F
:1023700000003F008000800000008000800080009E
:102380000000000020003F002100000000002000AD
:102390003F002000000000008000800080008000DE
:1023A0000000000000001F0020002000200020008E
:1023B0001F000000800080000000800080000000FE
:1023C000000000008000FF00A1002000200011009C
:1023D0000E0000000000000000008000800080006F
:1023E0008000000000000E00110020002000A0006E
:1023F000FF008000800080008000000080008000DE
:1024000080000000200020003F002100200000008C
:1024100001000000000000008000800080008000BB
:102420008000000000003300240024002400240069
:1024300019000000000080008000E00080008000A3
:10244000000000000000000000001F00200020002D
:1024500000000000800080000000000000008000FC
:102460008000000000001F0020002000200010005D
:102470003F002000800080008000000000008000FD
:1024800080008000000001000E00300008000600FF
:10249000010000008000800000008000000080003B
:1024A000800080000F0030000C0003000C003000A2
:1024B0000F0000000000800080000000800080000D
:1024C000800000000000200031002E000E003100CE
:1024D00020000000800080008000000000008000DC
:1024E00080008000800081008E00700018000600CF
:1024F000010000000000800080008000800080005B
:10250000800000000000210030002C00220021008B
:1025100030000000000000000000000080007C008F
:1025200002000200000000000000000000003F0068
:10253000400040000000000000000000FF0000001C
:10254000000000000000000000000000FF0000008C
:10255000000000000000020002007C00800000007B
:10256000000000000000400040003F0000000000AC
:10257000000000000000060001000100020002004F
:102580000400040000000000000000000000000043
:10259000000000000000000000000000000000003B
:1025A000000000000000000000000000000000002B
:1025B00000004E6F6E4D61736B61626C65000000D0
:1025C00000486172644661756C7400000000000090
:1025D0004D656D4D616E6167656D656E740000429D
:1025E00075734661756C740000000000000055733F
:1025F0006167654661756C740000000000000000B2
:1026000000000000000000000000000000000000CA
:1026100000000000000000000000000000000000BA
:1026200000000000000000000000000000000000AA
:10263000000000000000000000535643616C6C0075
:10264000000000000000000044656275674D6F6E79
:1026500069746F72000000000000000000000000BC
:1026600000000000000050656E645356000000003A
:1026700000000000005379735469636B0000000090
:1026800000000000444D4130000000000000000048
:10269000000000444D413100000000000000000037
:1026A0000000444D41320000000000000000000026
:1026B00000444D4133000000000000000000000015
:1026C000444D4134000000000000000000000044C0
:1026D0004D41350000000000000000000000444DA6
:1026E00041360000000000000000000000444D41A1
:1026F000370000000000000000000000444D413899
:102700000000000000000000000000444D413900BE
:1027100000000000000000000000444D4131300086
:10272000000000000000000000444D413131000075
:102730000000000000000000444D41313200000064
:1027400000000000000000444D4131330000000053
:10275000000000000000444D413134000000000042
:102760000000000000444D41313500000000000031
:1027700000000000444D415F4572726F720000001E
:102780000000004D434D000000000000000000006C
:1027900000004654464C000000000000000000000D
:1027A00000526561645F436F6C6C6973696F6E00A2
:1027B0004C56445F4C565700000000000000004C8F
:1027C0004C570000000000000000000000005761AE
:1027D000746368646F6700000000000000524E4799
:1027E00000000000000000000000000049324330FB
:1027F00000000000000000000000004932433100EA
:1028000000000000000000000000535049300000AC
:10281000000000000000000000535049310000009B
:10282000000000000000000053504932000000008A
:102830000000000000000043414E305F4F525F4DEA
:10284000425F6275660043414E305F4275735F4F71
:10285000666600000043414E305F4572726F720041
:102860000000000043414E305F54785F5761726E44
:10287000696E6743414E305F52785F5761726E698F
:102880006E6743414E305F57616B655F5570000066
:102890000052657365727665643531000000000092
:1028A000526573657276656435320000000000433E
:1028B000414E315F4F525F4D425F6275660043414A
:1028C0004E315F4275735F4F666600000043414EB4
:1028D000315F4572726F72000000000043414E315B
:1028E0005F54785F5761726E696E6743414E315F26
:1028F00052785F5761726E696E6743414E315F5720
:10290000616B655F55700000005265736572766596
:1029100064353900000000005265736572766564A5
:102920003630000000000055415254305F52585F6D
:1029300054580000000055415254305F4552520037
:10294000000000000055415254315F52585F545806
:102950000000000055415254315F455252000000C2
:1029600000000055415254325F52585F54580000E5
:10297000000055415254325F4552520000000000A1
:102980000055415254335F52585F545800000000C4
:1029900055415254335F455252000000000000552B
:1029A000415254345F52585F545800000000554162
:1029B0005254345F4552520000000000005541520D
:1029C00054355F52585F545800000000554152542E
:1029D000355F455252000000000000414443300082
:1029E00000000000000000000000414443310000EE
:1029F000000000000000000000434D5030000000C7
:102A00000000000000000000434D503100000000B5
:102A100000000000000000434D50320000000000A4
:102A200000000000000046544D300000000000008F
:102A3000000000000046544D31000000000000007E
:102A40000000000046544D3200000000000000006D
:102A5000000000434D540000000000000000000092
:102A6000000052544300000000000000000000007D
:102A700000526573657276656438330000000000AB
:102A800050495430000000000000000000000050D9
:102A900049543100000000000000000000005049CF
:102AA00054320000000000000000000000504954B3
:102AB00033000000000000000000000050444230DD
:102AC00000000000000000000000005553423000EC
:102AD0000000000000000000000055534244434441
:102AE000000000000000000000454E45545F3135F5
:102AF00038385F54696D6572454E45545F54726154
:102B00006E736D69740000454E45545F5265636590
:102B1000697665000000454E45545F4572726F72DC
:102B200000000000004932533000000000000000A7
:102B30000000000053444843000000000000000073
:102B4000000000444143300000000000000000008D
:102B5000000044414331000000000000000000007C
:102B60000054534930000000000000000000000045
:102B70004D43470000000000000000000000004C32
:102B80005054696D6572000000000000000052653D
:102B900073657276656431303200000000504F5228
:102BA000544100000000000000000000504F52544B
:102BB0004200000000000000000000504F5254434B
:102BC00000000000000000000000504F525444007C
:102BD000000000000000000000504F52544500006B
:102BE00000000000000000005265736572766564A5
:102BF00031303800000000526573657276656431CB
:102C000030390000000052657365727665643131B9
:102C100030000000005265736572766564313131B1
:102C200000000000526573657276656431313200D0
:102C300000000052657365727665643131330000BF
:102C400000005265736572766564313134000000AE
:102C5000005265736572766564313135000000009D
:102C6000526573657276656431313600000000523A
:102C70006573657276656431313700000000526516
:102C800073657276656431313800000000526573F7
:102C900065727665643131390000000000800340C0
:102CA0000090034000800B4000900B4000F00F406C
:102CB00040F00F4080F00F40C0F00F4000F10F4097
:102CC00066000A1D32000701640007106E0004064A
:102CD000780004088200040A8C00040C9600040E9C
:102CE000A0000410AA000412B4000414BE000416CC
:102CF000C8000418D200041ADC00041CE100041D02
:102D0000E600041EEB00041FF4000317FA0003188A
:102D1000130101062C01021400010908009004406F
:102D200000A0044000B0044000C0044000D00440B3
:102D300000A0064000B0064000C0064000D006409B
:102D400000A00E4000B00E406A6E6B6C676D4E4F77
:102D500034353637010000000DC1110009030CD0D5
:102D60001240173F185019031A783200A00A63E086
:102D7000ACFF650C6600670029142C1E2A007E0C2F
:102D80007F16802A814E8261836F847B8586868E42
:102D9000879788A489AF8AC58BD78CE88D204A0095
:102DA000491347084B144C17460522992303A604E0
:102DB0009B009CFFAB069E119F02000031000000AB
:102DC00002040101A423FF1FF423FF1FA423FF1FFC
:102DD000A423FF1FA423FF1F790CFF1F600CFF1FFC
:102DE00000000000000000000000000000000000E3
:102DF00000000000000000000000000000000000D3
:102E000030B4C9B2002904D00124DFF89C572C60EB
:102E100003E00024DFF890572C60D2B2002A01D1E1
:102E2000C0B2C04300242300DBB2082B15DA002413
:102E3000DFF878572C60040604D50124DFF87057BA
:102E40002C6003E00024DFF868572C600124DFF8D1
:102E50005C572C6040005B1CE6E70124DFF8485714
:102E60002C6030BC704738B504000D0001220021F1
:102E7000B5F15000C0B2FFF7C3FF01220021E4B258
:102E8000200950F01000C0B2FFF7BAFF0122002164
:102E900014F00F0050F00100C0B2FFF7B1FF31BDD8
:102EA00080B5012200218D20FFF7AAFF0122002119
:102EB0001420FFF7A5FF01220021AF20FFF7A0FF9C
:102EC00001BD38B500200400E4B2082C1EDA01224E
:102ED0000021B4F15000C0B2FFF792FF012200219F
:102EE0000020FFF78DFF012200211020FFF788FF4F
:102EF00000200500EDB2802D06DA0122012100201C
:102F0000FFF77EFF6D1CF5E7641CDDE731BD2DE9A1
:102F1000F04705000E0017009846089C5FF0000976
:102F20005FF0000AB7F1200081465FFA88F8B8F137
:102F3000010F40F08280EDB2802D02DB0020050001
:102F4000B61C3100C9B22800C0B2FFF78CFFE4B252
:102F5000012C39D1002082465FFA8AFABAF1080FB3
:102F600011DA01220121DFF84C065FFA89F95FEAE4
:102F7000091353FA8AF330F81300C0B2FFF740FF89
:102F80001AF1010AE8E7711CC9B22800C0B2FFF7C4
:102F90006AFF002082465FFA8AFABAF1080F80F2CF
:102FA000948001220121DFF80C065FFA89F95FEABB
:102FB000091353FA8AF310EB4300008AC0B2FFF7FB
:102FC0001FFF1AF1010AE6E7002082465FFA8AFA3B
:102FD000BAF1080F11DA00220121DFF8D8055FFAF3
:102FE00089F95FEA091353FA8AF330F81300C0B283
:102FF000FFF706FF1AF1010AE8E7711CC9B22800C1
:10300000C0B2FFF730FF002082465FFA8AFABAF1B9
:10301000080F5ADA00220121DFF898055FFA89F9D2
:103020005FEA091353FA8AF310EB4300008AC0B237
:10303000FFF7E6FE1AF1010AE7E75FFA88F8B8F150
:10304000000F42D1EDB2802D02DB00200500761C7E
:103050003100C9B22800C0B2FFF705FFE4B2012C6D
:1030600019D1002082465FFA8AFABAF1060F2CDAEB
:1030700001220121DFF840055FFA89F90C2303FBE7
:1030800009005FFA8AFA30F81A00C0B2FFF7B8FEFA
:103090001AF1010AE7E7002082465FFA8AFABAF1DC
:1030A000060F12DA00220121DFF80C055FFA89F918
:1030B0000C2303FB09005FFA8AFA30F81A00C0B249
:1030C000FFF79EFE1AF1010AE7E7BDE8F08702006C
:1030D00001200B00591EDBB2002B02D0D2B25043AC
:1030E000F7E770472DE9F04F83B082468B46914653
:1030F0001D000C9C00208DF804005FF00008B9F161
:10310000000F40D5B9F1010F01DAD9F10009E4B29D
:10311000012C18D1EDB2012D0AD10120009001231C
:103120002D225946C9B25046C0B2FFF7F0FE22E048
:103130000120009000232D225946C9B25046C0B24A
:10314000FFF7E5FE17E0EDB2012D0AD10020009057
:1031500001232D225946C9B25046C0B2FFF7D7FE0F
:1031600009E00020009000232D225946C9B25046A4
:10317000C0B2FFF7CCFEEDB2012D02D11AF1080A60
:1031800001E01AF1060AB9F10A0F02DA01208046BD
:1031900026E0B9F1640F02DA0220804620E0B9F59A
:1031A0007A7F02DA032080461AE042F210708145ED
:1031B00002DA0420804613E0DFF80004814502DAD9
:1031C000052080460CE0DFF8F803814502DA06208E
:1031D000804605E0DFF8EC03814501DA07208046F0
:1031E00000200600F6B25FFA88F8464580F0978026
:1031F000B8EB0600411EC9B20A20FFF768FFB9FB11
:10320000F0F00A21B0FBF1F201FB120007009DF87B
:103210000400002835D1F6B25FFA88F8B8F1010051
:1032200086422EDAFFB2002F28D1E4B2012C12D14F
:10323000012000902B00DBB220225946C9B2EDB22A
:10324000022095FBF0F0F6B2704350FA8AF0C0B25B
:10325000FFF75DFE11E0002000902B00DBB2202282
:103260005946C9B2EDB2022095FBF0F0F6B27043B8
:1032700050FA8AF0C0B2FFF74AFE4EE001208DF806
:103280000400E4B2012C24D1EDB2012D0FD10120B4
:103290000090012317F13002D2B25946C9B2F6B2FA
:1032A000F00050FA8AF0C0B2FFF731FE35E001209D
:1032B0000090002317F13002D2B25946C9B2F6B2DB
:1032C000062000FB06F050FA8AF0C0B2FFF71FFE9E
:1032D00023E0EDB2012D0FD100200090012317F162
:1032E0003002D2B25946C9B2F6B2F00050FA8AF0B2
:1032F000C0B2FFF70CFE10E000200090002317F191
:103300003002D2B25946C9B2F6B2062000FB06F02E
:1033100050FA8AF0C0B2FFF7FAFD761C62E7BDE80A
:10332000F78F2DE9F84F3C20ADF800005020834680
:10333000A5480500BDF8000080B2C008ADF8020045
:10334000BDF80000082190FBF1F202FB110291464A
:1033500000200600BDF80200B6B2864231D231002C
:10336000C9B20020FFF77FFDF00082460020070071
:10337000BFB2502F23DA00200400002080461FFA3D
:1033800088F8B8F1080F12DAE4B264081FFA88F876
:1033900018FA8AF01FFA8BFB0BFB0050BFB2385CA7
:1033A000012801D154F0800418F10108E7E7012257
:1033B00001212000C0B2FFF723FD7F1CD8E7761C57
:1033C000C8E73100C9B20020FFF74DFDF00082468A
:1033D00000200700BFB2502F28DA00200400002090
:1033E00080461FFA88F81FFA89F9C84512D2E4B25C
:1033F00064081FFA88F818FA8AF01FFA8BFB0BFB97
:103400000050BFB2385C012801D154F0800418F19B
:103410000108E6E7E4B2D9F10800044101220121E4
:103420002000C0B2FFF7ECFC7F1CD3E7BDE8F18FB2
:1034300080B5012201214A2000F0CAF801220121B1
:103440004B2000F0C5F8012201214C2000F0C0F80B
:10345000012201214D2000F0BBF801205B490860EA
:10346000642000F09EF9002058490860C82000F050
:1034700098F901205549086001220021AE20FFF78C
:10348000BFFC012200210020FFF7BAFC012200212D
:103490001020FFF7B5FC012200214020FFF7B0FC0F
:1034A000012200218120FFF7ABFC01220021CF2067
:1034B000FFF7A6FC01220021A120FFF7A1FC0122B9
:1034C0000021C820FFF79CFC01220021A620FFF765
:1034D00097FC01220021A820FFF792FC0122002185
:1034E0003F20FFF78DFC01220021D320FFF788FC4D
:1034F000012200210020FFF783FC01220021D520BA
:10350000FFF77EFC012200218020FFF779FC0122D9
:103510000021D920FFF774FC01220021F120FFF7E0
:103520006FFC01220021DA20FFF76AFC0122002152
:103530001220FFF765FC01220021DB20FFF760FC71
:10354000012200214020FFF75BFC01220021202006
:10355000FFF756FC012200210220FFF751FC012257
:1035600000218D20FFF74CFC012200211420FFF7E1
:1035700047FC01220021A420FFF742FC0122002188
:10358000A620FFF73DFC01220021AF20FFF738FC09
:1035900001220021AF20FFF733FCFFF792FC00214E
:1035A0000020FFF760FC01BD3410FE432810FE43ED
:1035B0002C10FE43B4190000E8410000A086010071
:1035C00040420F00809698006C0EFF1F3010FE43A3
:1035D00070B504000D0016004FF480712000C0B2D9
:1035E00000F0F6F86DB2002D11D15E48E4B2611121
:1035F00050F821005B49E4B2621151F82210496988
:10360000012214F01F039A409143416136E055486E
:10361000E4B2611150F821005249E4B2621151F84C
:1036200022104969012214F01F039A40114341619D
:10363000F6B2002E11D14B48E4B2611150F82100CE
:103640000068012114F01F02914088434549E4B20B
:10365000621151F82210086010E04248E4B2611192
:1036600050F821000068012114F01F029140084326
:103670003C49E4B2621151F82210086070BD38B5BF
:1036800004000D003748E4B2611150F82100406990
:1036900014F01F01C840C00703D46321324800F072
:1036A00004F9EDB2002D11D12E48E4B2611150F8A9
:1036B00021000068012114F01F029140884329492C
:1036C000E4B2621151F82210086010E02548E4B21B
:1036D000611150F821000068012114F01F0291408F
:1036E00008432049E4B2621151F82210086031BD4C
:1036F00010B504001B48E4B2611150F82100406984
:1037000014F01F01C840C00703D47B21164800F005
:10371000CCF81448E4B2611150F82100012114F0F2
:103720001F029140C16010BD10B504000D48E4B205
:10373000611150F82100406914F01F01C840C00712
:1037400003D58C21084800F0B0F80648E4B26111B6
:1037500050F82100006914F01F01C84010F001006A
:1037600010BD0000280BFF1FF859000010B5040021
:10377000002C15D0B4F1807F03D329210F4800F02D
:1037800094F800200E4908600E48046000200E499D
:10379000086005200A49086009480068C003FBD595
:1037A00010BD10B504002000441E002804D00748B6
:1037B0000068FFF7DBFFF6E710BD0000F4570000DC
:1037C00010E000E014E000E018E000E09423FF1FA8
:1037D00010B4294A12684FF40073C0B24409A340E0
:1037E0001A43254B1A60254AC0B2431152F82320D0
:1037F000012310F01F04A340C2F8A0301F4AC0B23A
:10380000431152F82320C0B210F01F0342F82310D6
:1038100010BC704710B4184A12684FF40073C0B25D
:103820004409A3401A43144B1A60144AC0B243110E
:1038300052F82320012310F01F04A340C2F8A03047
:1038400031F4E0610D4AC0B2431152F82320C0B2F6
:1038500010F01F0352F8232012F4E0621143074ACC
:10386000C0B2431152F82320C0B210F01F0342F837
:10387000231010BC7047000038800440980BFF1FD5
:10388000DFF800F0AD0CFF1FDFF800F0D10CFF1FD8
:10389000BFF34F8F4648006810F4E0604549084385
:1038A00043490860BFF34F8FFEE738B504000D00B1
:1038B000002000F08DF82A0021003F4800F0C0F8F9
:1038C000002000F0A2F84FF47A70FFF76AFFF2E7E9
:1038D00038B504000D00210049B2032000F0CEF9F4
:1038E000200032BD10B50024042000F0F3F90420BC
:1038F00000F026FA002841D1002000F069F80420E9
:1039000000F01EFA012801D101200400002000F07F
:103910007CF82A4800F094F84FF4FA70FFF741FF62
:10392000E4B2012CEBD1042000F00AFA0028E6D121
:10393000042000F005FA002806D1002000F065F808
:103940006420FFF72EFFF3E7042000F0F9F90128C7
:1039500006D1002000F059F83220FFF722FFF3E7EC
:10396000174800F06DF8FFF78BFF6420FFF719FF91
:103970000020FFF789FFFFF78BFFC0E710BD10B5F0
:1039800010480468012000F023F8012000F03DF801
:103990000D48E4B20F2101FB0402E4B221000B4800
:1039A00000F04EF84FF47A70FFF7FBFEEDE70000F1
:1039B0000CED00E00400FA05D85B0000405D00005B
:1039C000545C000004ED00E01004FF1F745B000075
:1039D00010B5040064B2042C07DA01220121174853
:1039E00064B2205CFFF7F4FD0EE004200400200028
:1039F000441E40B2002807D0012201210F4864B2C2
:103A0000205CFFF7E5FDF2E710BD10B5040064B2DD
:103A1000042C05DA094864B2205CFFF769FE0CE06B
:103A2000042004002000441E40B2002805D00348B2
:103A300064B2205CFFF75CFEF4E710BDCC0BFF1F07
:103A40000EB400B582B003A90091024600AB01217B
:103A5000034878440A30FCF7DFFC06BC5DF810FB35
:103A6000BD2200002DE9F84304000D0064B2002CD3
:103A700008D0022C2CD018D3042C4FD03BD3052CCB
:103A80005FD071E0DFF83402006850F48060DFF846
:103A90002C1208604FF440716620FFF799FE4FF436
:103AA00040716720FFF794FE5EE0DFF810020068C7
:103AB00050F40060DFF8041208604FF440714320B6
:103AC000FFF786FE4FF440714420FFF781FE4BE084
:103AD000DFF8E801006850F48050DFF8E01108607A
:103AE0004FF440716320FFF773FE4FF44071622082
:103AF000FFF76EFE38E0DFF8C401006850F40050B4
:103B0000DFF8B81108604FF440715020FFF760FEF5
:103B10004FF440715120FFF75BFE25E0DFF8A00174
:103B2000006850F48060DFF8981108604FF440712D
:103B30004E20FFF74DFE4FF440714F20FFF748FE37
:103B400012E0DFF87C01006850F40060DFF87011CB
:103B500008604FF440718920FFF73AFE4FF440713E
:103B60008820FFF735FEFFE7DFF8580164B250F810
:103B70002400C07810F0F300DFF8481164B251F867
:103B80002410C870DFF83C0164B250F8240080783B
:103B9000DFF8301164B251F82410887064B2002C40
:103BA00002D064B2012C07D1DFF81C0100684FF489
:103BB0007A714843814606E0DFF8100100684FF44F
:103BC0007A71484381462801B9FBF0F00600B6B28D
:103BD000B6F5005F02DB41F6FF700600B9FBF5F0B9
:103BE000B6B2B0EB06100700BFB2202F03DBDC211A
:103BF0003748FFF75AFE334864B250F82400007883
:103C000010F0E0008046B6B2300A10F01F0050EA13
:103C100008002C4964B251F824100870294864B295
:103C200050F824004670274864B250F82400807A87
:103C300010F0E000804617F01F0050EA080021490C
:103C400064B251F8241088721E4864B250F82400FF
:103C5000007C50F088001B4964B251F824100874AD
:103C6000184864B250F82400C07850F00C00154990
:103C700064B251F82410C870BDE8F183114A40B213
:103C800052F8202012791206F8D50E4A40B252F8A6
:103C90002020D171704770B504000D00160030006F
:103CA000461E002808D095F9001049B2200040B205
:103CB000FFF7E4FF6D1CF2E770BD000034800440A4
:103CC00028800440AC0BFF1F9423FF1F9C23FF1F81
:103CD000785A000010B5040064B2082C0DDA0022F6
:103CE0000021224864B2205CFFF772FC03211F48C8
:103CF00064B2205CFFF78EFD14E008200400200071
:103D0000441E40B200280DD000220021174864B2A2
:103D1000205CFFF75DFC0321144864B2205CFFF7D0
:103D200079FDECE710BD10B50400104864B2205CCA
:103D3000FFF7FAFC002801D1002000E0012010BDAF
:103D400010B50400200040B2FFF7EDFF00280AD1B3
:103D50000A20FFF726FD200040B2FFF7E4FF00280D
:103D600001D1002000E0012010BD0000C40BFF1FA6
:103D700038B504000D0064B2002C06D0022C69D0C6
:103D80004CD3032C00F08280C7E0DFF844040068C5
:103D900050F08070DFF8381408606DB2002D0BD041
:103DA000022D15D00ED3042D1ED017D3062D27D0EB
:103DB00020D3072D2AD02FE04FF480614120FFF758
:103DC00007FD2AE04FF440710420FFF701FD24E0D5
:103DD0004FF440710520FFF7FBFC1EE04FF48061BB
:103DE0004420FFF7F5FC18E04FF440710720FFF77F
:103DF000EFFC12E04FF480616520FFF7E9FC0CE076
:103E00004FF480616620FFF7E3FC06E04FF4806129
:103E10006720FFF7DDFC00E07FE07EE0DFF8B00325
:103E2000006850F00070DFF8A81308606DB2002D34
:103E300002D0012D06D00BE04FF440710C20FFF7AB
:103E4000C7FC06E04FF440710D20FFF7C1FC00E015
:103E500063E062E0DFF87C03006850F08070DFF818
:103E6000741308606DB2002D02D0012D06D00BE056
:103E70004FF440713220FFF7ABFC06E04FF4407185
:103E80003320FFF7A5FC00E047E046E0DFF84403FD
:103E9000006850F00070DFF83C1308606DB2002D30
:103EA0000BD0022D15D00ED3042D1ED017D3062D06
:103EB00027D020D3072D2AD02EE04FF4C0618520D3
:103EC000FFF786FC28E04FF4C0618620FFF780FCF6
:103ED00022E04FF4C0618720FFF77AFC1CE04FF42A
:103EE000C0618820FFF774FC16E04FF4C0618920A0
:103EF000FFF76EFC10E04FF4C0618A20FFF768FC0A
:103F00000AE04FF4C0618B20FFF762FC04E04FF43D
:103F1000C0618C20FFF75CFCFFE731BD2DE9F84F55
:103F200004000D0016001F0064B2002C11D064B212
:103F3000012C02D064B2022C02D16DB2022D08DB3A
:103F400064B2032C05D040F28511DFF88C02FFF734
:103F5000ACFC290049B2200040B2FFF709FFDFF8AE
:103F60007C0200684FF47A71484380465FEA18404B
:103F7000B0FBF6F08146002082461FFA89F959FA13
:103F80000AF0012802DB1AF1010AF6E75FFA8AFA61
:103F9000BAF1080F05DB4FF4D071DFF83C02FFF7F0
:103FA00084FC38FA0AF0B0FBF6F081461FFA89F972
:103FB000DFF82C0264B240F8249064B2002C05D0E3
:103FC000022C19D00DD3032C21D02BE01FFA89F934
:103FD00019F1010000FB07F06421B0FBF1F083460A
:103FE00020E01FFA89F919F1010000FB07F06421B4
:103FF000B0FBF1F0834615E01FFA89F919F10100D1
:1040000000FB07F06421B0FBF1F083460AE01FFAE1
:1040100089F919F1010000FB07F06421B0FBF1F010
:104020008346FFE7DFF8BC0164B250F824006DB2AC
:1040300010EBC500DFF8AC1164B251F824106DB27A
:1040400011EBC501C96831F00401C160DFF89401CA
:1040500064B250F824006DB210EBC5002821C16095
:104060005FFA8AFA1AF0070050F00800DFF87411BE
:1040700064B251F8241008601FFA89F9DFF864016E
:1040800064B250F82400C0F808900020DFF8541102
:1040900064B251F82410C864DFF8480164B250F8E3
:1040A00024006DB210EBC5001FFA8BFBC0F810B0F6
:1040B0000020DFF8301164B251F824104860BDE8E8
:1040C000F18F2DE9F04104000D0016005FF00008AB
:1040D00064B2002C11D064B2012C02D064B2022C64
:1040E00002D16DB2022D08DB64B2032C05D04FF46F
:1040F000F371DFF8E400FFF7D8FB64B2002C05D0C1
:10410000022C15D00BD3032C1BD023E0652E05D336
:104110004FF4F671DFF8C000FFF7C7FB1AE0652E19
:1041200005D34FF4F871DFF8B000FFF7BEFB11E0E4
:10413000652E05D34FF4FA71DFF89C00FFF7B5FB4D
:1041400008E0652E05D340F2F911DFF88C00FFF787
:10415000ACFBFFE7DFF8880064B250F8240080462B
:1041600064B2002C05D0022C15D00BD3032C1BD02D
:1041700023E018F1010000FB06F06421B0FBF1F030
:1041800007001AE018F1010000FB06F06421B0FB03
:10419000F1F0070011E018F1010000FB06F06421C6
:1041A000B0FBF1F0070008E018F1010000FB06F099
:1041B0006421B0FBF1F00700FFE7DFF8280064B2EC
:1041C00050F824006DB210EBC5000761BDE8F08126
:1041D0003C80044030800440785900009C23FF1F3D
:1041E0008423FF1F180BFF1F0000000000000000C9
:1041F000000000000000000000002F000000000090
:10420000000000000700000007000000000014008C
:104210007F0014007F001400000024002A007F00AB
:104220002A0012000000620064000800130023004E
:104230000000360049005500220050000000000038
:104240000500030000000000000000001C00220028
:104250004100000000000000410022001C0000009E
:104260000000140008003E000800140000000800D0
:1042700008003E0008000800000000000000A00048
:1042800060000000000008000800080008000800A6
:10429000000000006000600000000000000020003E
:1042A000100008000400020000003E005100490018
:1042B00045003E000000000042007F00400000007A
:1042C000000042006100510049004600000021004A
:1042D000410045004B00310000001800140012009E
:1042E0007F00100000002700450045004500390010
:1042F00000003C004A004900490030000000010075
:104300007100090005000300000036004900490063
:1043100049003600000006004900490029001E003F
:104320000000000036003600000000000000000021
:1043300056003600000000000000080014002200B3
:1043400041000000000014001400140014001400C8
:1043500000000000410022001400080000000200DC
:104360000100510009000600000032004900590018
:1043700051003E0000007C001200110012007C0081
:1043800000007F00490049004900360000003E005F
:10439000410041004100220000007F004100410037
:1043A00022001C0000007F00490049004900410034
:1043B00000007F00090009000900010000003E0024
:1043C0004100490049007A0000007F000800080011
:1043D00008007F000000000041007F004100000055
:1043E00000002000400041003F00010000007F006D
:1043F000080014002200410000007F00400040003F
:104400004000400000007F0002000C0002007F001E
:1044100000007F000400080010007F0000003E0044
:104420004100410041003E0000007F0009000900FA
:104430000900060000003E004100510021005E001E
:1044400000007F0009001900290046000000460016
:1044500049004900490031000000010001007F00CF
:104460000100010000003F004000400040003F000C
:1044700000001F002000400020001F0000003F003F
:104480004000380040003F000000630014000800B6
:104490001400630000000700080070000800070017
:1044A0000000610051004900450043000000000089
:1044B0007F00410041000000000055002A00550027
:1044C0002A00550000000000410041007F0000006C
:1044D000000004000200010002000400000040008F
:1044E00040004000400040000000000001000200C9
:1044F0000400000000002000540054005400780024
:1045000000007F00480044004400380000003800EC
:1045100044004400440020000000380044004400EF
:1045200048007F0000003800540054005400180078
:10453000000008007E0009000100020000001800D1
:10454000A400A400A4007C0000007F000800040078
:10455000040078000000000044007D0040000000DE
:1045600000004000800084007D00000000007F000B
:1045700010002800440000000000000041007F00FF
:104580004000000000007C000400180004007800D7
:1045900000007C00080004000400780000003800DF
:1045A00044004400440038000000FC0024002400C3
:1045B0002400180000001800240024001800FC004B
:1045C00000007C000800040004000800000048000F
:1045D0005400540054002000000004003F00440038
:1045E0004000200000003C004000400020007C0013
:1045F00000001C002000400020001C0000003C00C7
:104600004000300040003C00000044002800100042
:104610002800440000001C00A000A000A0007C00B6
:1046200000004400640054004C00440014001400D6
:104630001400140014001400DFF800F01D0EFF1F1A
:10464000DFF8B41340B231F8201040B20128C0F2B4
:10465000788140B2162880F274810022DFF89C3302
:104660001A7089B2652904DA0022DFF890335A7093
:104670007DE089B2C92904DA0122DFF880335A705B
:1046800075E089B2B1F5967F04DC0222DFF86C3365
:104690005A706CE089B2B1F5C87F04DC0322DFF800
:1046A0005C335A7063E089B2B1F5FA7F04DC04220E
:1046B000DFF848335A705AE089B2B1F5167F04DC4E
:1046C0000522DFF838335A7051E089B2B1F52F7FF7
:1046D00004DC0622DFF824335A7048E089B2B1F5D1
:1046E000487F04DC0722DFF814335A703FE089B2B8
:1046F000B1F5617F04DC0822DFF800335A7036E040
:1047000089B2B1F57A7F04DC0922DFF8F0325A7001
:104710002DE089B240F24D42914203DA0A22B74BB2
:104720005A7024E089B2B1F5966F03DC0B22B34BCB
:104730005A701CE089B240F21552914203DA0C2201
:10474000AE4B5A7013E089B2B1F5AF6F03DC0D22A6
:10475000AA4B5A700BE089B240F2DD52914203DA63
:104760000E22A64B5A7002E00F22A44B5A7089B257
:10477000332903DA0022A14B9A7071E089B26529CE
:1047800003DA01229D4B9A706AE089B2972903DA15
:1047900002229A4B9A7063E089B2C92903DA032294
:1047A000964B9A705CE089B2FB2903DA0422934BA2
:1047B0009A7055E089B2B1F5967F03DC05228F4BE4
:1047C0009A704DE089B2B1F5AF7F03DC06228B4BC6
:1047D0009A7045E089B2B1F5C87F03DC0722874BA8
:1047E0009A703DE089B2B1F5E17F03DC0822834B8A
:1047F0009A7035E089B2B1F5FA7F03DC09227F4B6C
:104800009A702DE089B240F22722914203DA0A22FF
:104810007A4B9A7024E089B2B1F5167F03DC0B2243
:10482000764B9A701CE089B240F28B22914203DAF7
:104830000C22724B9A7013E089B2B1F52F7F03DC22
:104840000D226E4B9A700BE089B240F2EF2291423A
:1048500003DA0E22694B9A7002E00F22674B9A70BE
:1048600089B21A2903DA0022644BDA7069E089B24E
:10487000332903DA0122614BDA7062E089B24C29F4
:1048800003DA02225D4BDA705BE089B2652903DA54
:1048900003225A4BDA7054E089B27E2903DA0422EB
:1048A000564BDA704DE089B2972903DA0522534B53
:1048B000DA7046E089B2B02903DA06224F4BDA708B
:1048C0003FE089B2C92903DA07224C4BDA7038E09D
:1048D00089B2E22903DA0822484BDA7031E089B262
:1048E000FB2903DA0922454BDA702AE089B2B1F5D7
:1048F0008A7F03DA0A22414BDA7022E089B2B1F5ED
:10490000967F03DC0B223D4BDA701AE089B2B1F5D9
:10491000A37F03DA0C22394BDA7012E089B2B1F5C9
:10492000AF7F03DC0D22354BDA700AE089B2B1F5B6
:10493000BC7F03DA0E22314BDA7002E00F222F4BDC
:10494000DA70704710B50400200040B2FFF778FE1F
:104950002B48007810F0FD0029490870284800789D
:1049600050F0100026490870B820264908702648E3
:104970000078C006FBD424480078C0F38100C0B2A0
:104980000228F8D11D48C3781C4882781B4841781A
:104990001A480078FFF750FE174864B210EB840005
:1049A000807810F0070019490870134864B210EBC2
:1049B0008400C07810F01F0050F0400014490870C7
:1049C000114800788006FBD50F4800784006FBD5DB
:1049D0000C48007810F03F000A4908700A48007837
:1049E000C0F38100C0B20328F8D1034864B230F8A4
:1049F0002400C0B210BD00003C0BFF1F940BFF1F32
:104A00000140064000400640064006400440064083
:104A10000540064001B4BDF80000002805D0BDF8EF
:104A20000000401EADF80000F5E701B0704780B50A
:104A3000012201212A20FEF7CBFD012201212B209A
:104A4000FEF7C6FD23212A20FEF7E4FE23212B20BA
:104A5000FEF7E0FE01BD80B501207A490860012023
:104A6000794908604FF4C870FFF7D4FF00207749F8
:104A7000086077480068002804D101207349086065
:104A8000002016E001207149086000206D4908608F
:104A90004FF4C870FFF7BEFF00206B4908606C48F8
:104AA0000068002804D0012068490860002000E068
:104AB000012002BD80B500206349086000206149E3
:104AC00008604FF4C870FFF7A5FF01205E49086039
:104AD0004FF4C870FFF79EFF01205A4908604FF459
:104AE000C870FFF797FF01BD80B5002056490860E8
:104AF0004FF4C870FFF78EFF0020524908604FF452
:104B0000C870FFF787FF01204F4908604FF4C87055
:104B1000FFF780FF00204C4908604FF4C870FFF792
:104B200079FF01BD80B50020474908604FF4C87087
:104B3000FFF770FF0120434908604FF4C870FFF78A
:104B400069FF0120404908604FF4C870FFF762FF19
:104B500000203D4908604FF4C870FFF75BFF01BDBE
:104B600080B50020384908600020384908604FF4BB
:104B7000C870FFF74FFF0120334908604FF4C87039
:104B8000FFF748FF32480068002807D001202F496E
:104B9000086000202C490860002006E001202B4915
:104BA0000860002028490860012002BD38B50500D2
:104BB00008242000441EC0B2002818D0280603D5BF
:104BC00001202049086002E000201E4908606D00B5
:104BD0004FF4C870FFF71EFF01201B4908604FF417
:104BE000C870FFF717FF002017490860E1E731BDE3
:104BF00038B5082400250020144908602000441E10
:104C0000C0B2002815D06D0000200F4908604FF495
:104C1000C870FFF7FFFE01200B4908604FF4C87011
:104C2000FFF7F8FE0A4800680028E7D055F00105B4
:104C3000E4E7012005490860002003490860EDB25F
:104C4000280032BD2C08FE432808FE43AC0AFE4370
:104C50002C0AFE4370B504000D0000262900C9B2DD
:104C6000200080B200F00AF8002805D1761CF6B2C8
:104C7000142EF3D1002000E0012070BD38B50400EF
:104C80000D00FFF7E8FE002801D1002019E04220C6
:104C9000FFF78CFFFFF764FF002803D1FFF70AFF3F
:104CA00000200EE02000C0B2FFF780FFFFF758FFA2
:104CB0002800C0B2FFF77AFFFFF752FFFFF7FAFEB6
:104CC000012032BDF8B504000D00160000273200A7
:104CD000D2B2290089B2200000F00AF8002805D1DC
:104CE0007F1CFFB21E2FF2D1002000E00120F2BD98
:104CF00070B504000D001600FFF7ADFE002801D1CD
:104D0000002037E04220FFF751FFFFF729FF00287E
:104D100003D1FFF7CFFE00202CE03000C0B2FFF738
:104D200045FFFFF71DFFFFF7C5FEFFF794FE0028C4
:104D300001D100201EE04320FFF738FFFFF710FFEE
:104D4000002803D1FFF7B6FE002013E0ADB2002D1E
:104D50000DD0FFF74DFF2070ADB2012D02D1FFF74E
:104D6000E1FE01E0FFF7C0FE641C6D1EEEE7FFF7F9
:104D7000A1FE012070BD00002DE9F84380460C0023
:104D80005FEA981010F00700C0B25FEA4019404691
:104D9000103810F03F00C0B2C000050015EB09004C
:104DA0000700E4B217EBC400401E0600F6B2FFB2E3
:104DB000BE420DD3002200213800C0B2FEF708FC2D
:104DC0004FF481713800C0B2FEF702FD7F1CEDE7A1
:104DD000BDE8F1832DE9F84F04000D0016001F0017
:104DE0009DF92880DDF82C90DDF830A04FFA88F886
:104DF000B8F1000F02D15FF0010B11E04FFA88F813
:104E0000B8F1010F02D15FF0020B09E04FFA88F808
:104E1000B8F1020F02D15FF0040B01E05FF0100B5C
:104E20004FFA88F8B8F1000F05D16748854202D3E0
:104E30006648A84221D24FFA88F8B8F1010F09D18B
:104E40006148854206D36248A84203D315F00300A7
:104E5000032812D14FFA88F8B8F1020F09D15A4845
:104E6000854206D35B48A84203D315F0030000280F
:104E700003D061215848FEF718FDB9F5004F03D360
:104E800063215548FEF711FD5448006850F00200B8
:104E9000524908605248006850F0020050490860CA
:104EA000504864B261010D5064B2600100F180406D
:104EB00010F510400661002064B2610101F18041EB
:104EC00011F5104188805FFA8BFB64B2600100F13C
:104ED000804010F51040A0F814B04FFA88F85FEA4F
:104EE000082010F4E0604FFA88F818F00701084332
:104EF00064B2610101F1804111F51041C88048465A
:104F00004004400C64B2610101F1804111F510418F
:104F1000C88248464004400C64B2610101F18041FE
:104F200011F51041C8833048006830F080002E49E8
:104F300008605FFA8BFB64B2600100F1804010F5FD
:104F40001040C0F808B0002064B2610101F1804156
:104F500011F51041C8605FEACA7002D4D9F10000AF
:104F600000E0002064B2610101F1804111F51041BF
:104F700088614CF20A0064B2610101F1804111F5CF
:104F800010418883FFB27809313050F08000174912
:104F900064B2605416493800C0B2FEF719FC594695
:104FA000C9B22800FFF7E8FE124800680121A140BD
:104FB000884310490860104800680121A140084357
:104FC0000D490860BDE8F18F10F00F4013F10F405C
:104FD00012F10F4010F10F4078580000408004405B
:104FE0003C800440009000400080004000100240DF
:104FF000000101000C80004024800040012110F0DD
:105000001F029140774A40B2430942F8231070478B
:10501000012110F01F029140734A40B2430942F847
:105020002310704710B504007048046000F081F848
:105030000028FBD000F002F8002010BDE0B50120F0
:1050400002904FF4167001900020009018236748DA
:10505000026867490020FFF7BDFE66480068400807
:105060004000644908605720FFF7D2FF624800689B
:1050700050F00100604908600020FFF7BFFF5F4962
:105080001820FEF7A5FB5E491920FEF7A1FB07BD1E
:1050900080B55C4890F90000042818D103205949D4
:1050A00008705720FFF7B4FF5FF080705649086022
:1050B0005048006850F001004E4908605FF0807071
:1050C00051490860494800685049086005E0572088
:1050D000FFF79EFF02204B49087001BD012049499E
:1050E00008704548006850F0010043490860704767
:1050F00080B50420434908705FF0FF3042490860E2
:105100005720FFF77BFF3F4890F9000001280FD0A0
:105110003C4890F900000228F5D104203949087074
:105120005FF0FF30384908605720FFF767FFEAE774
:1051300001BD10B582B0002400208DF80000FFF7FB
:1051400076FC80211220FFF785FD002804D130482D
:10515000FEF776FC002043E03220FEF722FB0B2214
:10516000012100A8FFF7AEFD002804D12948FEF771
:1051700067FC002034E09DF800102748FEF760FC33
:10518000264801782648FEF75BFC9DF800002128A0
:1051900025D10020040021480078A4B280B28442C6
:1051A00018D22048A4B210EB440041781D48A4B2A4
:1051B00010F8140080B2FFF74DFD002808D11948FF
:1051C000A4B210F814101848FEF73AFC002007E0CB
:1051D000641CE0E71548FEF733FC012000E00020E6
:1051E00016BD000000E100E080E100E0A023FF1F09
:1051F00050F00F400C80004024800040020102006B
:1052000012010900D00BFF1FA09004401090004035
:10521000EC5C0000545D0000FC5B0000380CFF1FDC
:10522000745C0000D40BFF1F045D0000205C0000D4
:10523000DFF800F0AB380000DFF800F0A337000023
:10524000F02054490870534800780006FBD55148B7
:1052500000787121084201D0002000E00120704751
:1052600080B54D48006850F400204B49086049481B
:1052700000780006FBD5F020464908700A20FFF7A9
:10528000DBFF01BD10B582B00400A4B24FF4805022
:1052900000FB04F000900920404908709DF80200CE
:1052A0003F4908709DF801003E4908709DF80000D4
:1052B0003D490870FFF7C4FF002801D100200EE02F
:1052C000A4B2002C0AD15FF0FF327FF001034FF44B
:1052D0008161200080B200F003F800E0012016BDDB
:1052E000F0B583B006000F0014001D00B6B24FF4F5
:1052F0008050BFB200FB06700190BFB2082097FB40
:10530000F0F101FB1071002903D0EA212748FFF7D3
:105310008FFFBFB2B7F5805F03DDEC212348FFF7B5
:1053200087FF9DF806001E4908709DF805001D497D
:1053300008709DF804001C49087000949DF8030053
:105340001B4908709DF802001A4908709DF8010079
:10535000194908709DF800001849087007200F4986
:10536000087000959DF80300154908709DF802002B
:10537000144908709DF80100134908709DF8000059
:1053800012490870FFF75CFF002801D1002000E0FF
:105390000120FEBD0000024004F001400700024071
:1053A000060002400500024004000240F8580000D8
:1053B0000B0002400A0002400900024008000240BF
:1053C0000F0002400E0002400D0002400C0002409F
:1053D000F0B4114E366834000F4E366856F47F062E
:1053E0000D4F3E600E0616F0706656EA0076170501
:1053F00017F470073E431F0417F470273E43074F0E
:105400003E6000263500EDB29D4201D26D1CFAE7E8
:10541000014E3460F0BC704700F00140448004400D
:1054200080B500F03BF800F077F800F084F84948C8
:10543000FFF7F8FD0FF23101672000F0A2F80FF23C
:105440005501102000F09DF8FFF752FE4FF4167240
:105450004049414800F0ACF8FDF763FF4FF4167186
:105460003C4800F0EFF8EFE738B53C48006800280A
:10547000FBD03A48006805005FF0FF30374908600C
:105480001920040035FA04F0C00701D5FFF700FE2B
:1054900031BD000080B5FFF721FE01BD80B50023BE
:1054A00042F2107201210220FEF738FD0022012194
:1054B0004320FEF78DF8002201214220FEF788F8F4
:1054C00001214320FEF7DBF800214220FEF7D7F848
:1054D000382201210220FEF7F4FD002342F210726F
:1054E00000210220FEF71AFD002201213120FEF7E3
:1054F0006FF8002201213020FEF76AF800213120E8
:10550000FEF7BDF801213020FEF7B9F8382200215E
:105510000220FEF7D6FD01BD80B541F2883364223A
:1055200003210020FEF7FAFC42F2CA1203210020F8
:10553000FEF7C7FD01BD80B5FDF77AFFFDF7B0FCB2
:105540000120009000230A2206211420FDF7CAFD45
:1055500001BD00002C21FF1F6C0EFF1FA090044016
:1055600010B504004FF4007094FBF0F101FB104102
:10557000002903D01E210B48FEF797F90A48046062
:1055800010BD38B504000D0007480068074988427F
:1055900003D030210348FEF788F9044864B240F88C
:1055A000245031BDF85A000008ED00E00000FF1F54
:1055B000F8B4234B1B88ADF8003005000C00160032
:1055C000721E002E3AD026783300641C00AEDBB287
:1055D000DF11BE5D2E706D1C00AEC3F38017FFB2ED
:1055E000BE5D2E706D1C00AEC3F34017FFB2BE5DF2
:1055F0002E706D1C00AEC3F30017FFB2BE5D2E709F
:105600006D1C00AEC3F3C007FFB2BE5D2E706D1CF3
:1056100000AEC3F38007FFB2BE5D2E706D1C00AEFE
:10562000C3F34007FFB2BE5D2E706D1C00AEDBB24F
:1056300013F00107BE5D2E706D1CC0E7F1BC704712
:105640003E10000038B504000D000C480088ADF88D
:1056500002000B480088ADF8000002220DF10201A3
:105660000320FEF718FB2A0021000320FEF713FB9E
:10567000022200A90320FEF70EFB31BD76100000C8
:10568000BE11000080B500F095F800F02AF800F097
:105690000AF8FEF727F9012201210420FDF798FFFF
:1056A000FFF7BEFEFEE780B50C20FFF74BF933494C
:1056B0000860324800684FF47A7148433049086006
:1056C0002F4800682F490968C1F30361491CB0FBEA
:1056D000F1F02D4908605FF4E1310320FEF7C2F9D3
:1056E00001BD2DE9F8432948294988420DD0002001
:1056F0008046B8F5826F08D2254850F82800234923
:1057000041F8280018F10108F3E72048FFF728FFC7
:10571000204807002048060020480400A01B8046BF
:105720004046B0F10108002804D030783870761C6B
:105730007F1CF5E71A4881461A480500B5EB0900B9
:1057400080464046B0F10108002805D0002089F8C5
:10575000000019F10109F4E713481449144A531AD7
:1057600098464346B3F10108002B04D00B78037030
:10577000491C401CF5E7BDE8F18300009823FF1F9A
:105780009423FF1F448004409C23FF1F0000FF1F41
:10579000000000001004FF1F94250000002E0000F0
:1057A0006C0EFF1FF423FF1F7C0CFF1F3052000004
:1057B0002054000080B500F008F80C4800884FF62F
:1057C000FE7108400949088001BDEFF3118072B6EF
:1057D0004CF22051064A11804DF62811044A1180DE
:1057E000C0B2002800D162B670470000002005401A
:1057F0000E200540453A5C5A68694E656E674368FD
:10580000655CC9BDCDE2D7CAC1CF5CC9BDCDE24B95
:105810003630B2CEBFBCB4FAC2EB56352E33A3A895
:10582000D6A7B3D64658A1A2464EBACD444E5AA3E7
:10583000A95CCAE9CDE2B5C4B2CEBFBCC0FDB3CC51
:105840005C4C43445FC9E3CFF1CDB75FB6E0B9A686
:10585000C4DCB5F7CAD4C9CFCEBBBBFA5C43686918
:10586000705C7372635C4D4B36305F53797354696F
:10587000636B2E6300000000453A5C5A68694E6510
:105880006E674368655CC9BDCDE2D7CAC1CF5CC94C
:10589000BDCDE24B3630B2CEBFBCB4FAC2EB56350A
:1058A0002E33A3A8D6A7B3D64658A1A2464EBACD4A
:1058B000444E5AA3A95CCAE9CDE2B5C4B2CEBFBC7E
:1058C000C0FDB3CC5C4C43445FC9E3CFF1CDB75FBF
:1058D000B6E0B9A6C4DCB5F7CAD4C9CFCEBBBBFA13
:1058E0005C436869705C7372635C4D4B36305F6417
:1058F0006D612E6300000000453A5C5A68694E6590
:105900006E674368655CC9BDCDE2D7CAC1CF5CC9CB
:10591000BDCDE24B3630B2CEBFBCB4FAC2EB563589
:105920002E33A3A8D6A7B3D64658A1A2464EBACDC9
:10593000444E5AA3A95CCAE9CDE2B5C4B2CEBFBCFD
:10594000C0FDB3CC5C4C43445FC9E3CFF1CDB75F3E
:10595000B6E0B9A6C4DCB5F7CAD4C9CFCEBBBBFA92
:105960005C436869705C7372635C4D4B36305F6694
:105970006C6173682E630000453A5C5A68694E6535
:105980006E674368655CC9BDCDE2D7CAC1CF5CC94B
:10599000BDCDE24B3630B2CEBFBCB4FAC2EB563509
:1059A0002E33A3A8D6A7B3D64658A1A2464EBACD49
:1059B000444E5AA3A95CCAE9CDE2B5C4B2CEBFBC7D
:1059C000C0FDB3CC5C4C43445FC9E3CFF1CDB75FBE
:1059D000B6E0B9A6C4DCB5F7CAD4C9CFCEBBBBFA12
:1059E0005C436869705C7372635C4D4B36305F6614
:1059F000746D2E6300000000453A5C5A68694E657C
:105A00006E674368655CC9BDCDE2D7CAC1CF5CC9CA
:105A1000BDCDE24B3630B2CEBFBCB4FAC2EB563588
:105A20002E33A3A8D6A7B3D64658A1A2464EBACDC8
:105A3000444E5AA3A95CCAE9CDE2B5C4B2CEBFBCFC
:105A4000C0FDB3CC5C4C43445FC9E3CFF1CDB75F3D
:105A5000B6E0B9A6C4DCB5F7CAD4C9CFCEBBBBFA91
:105A60005C436869705C7372635C4D4B36305F6792
:105A700070696F2E63000000453A5C5A68694E6594
:105A80006E674368655CC9BDCDE2D7CAC1CF5CC94A
:105A9000BDCDE24B3630B2CEBFBCB4FAC2EB563508
:105AA0002E33A3A8D6A7B3D64658A1A2464EBACD48
:105AB000444E5AA3A95CCAE9CDE2B5C4B2CEBFBC7C
:105AC000C0FDB3CC5C4C43445FC9E3CFF1CDB75FBD
:105AD000B6E0B9A6C4DCB5F7CAD4C9CFCEBBBBFA11
:105AE0005C436869705C7372635C4D4B36305F7504
:105AF0006172742E63000000453A5C5A68694E6515
:105B00006E674368655CC9BDCDE2D7CAC1CF5CC9C9
:105B1000BDCDE24B3630B2CEBFBCB4FAC2EB563587
:105B20002E33A3A8D6A7B3D64658A1A2464EBACDC7
:105B3000444E5AA3A95CCAE9CDE2B5C4B2CEBFBCFB
:105B4000C0FDB3CC5C4C43445FC9E3CFF1CDB75F3C
:105B5000B6E0B9A6C4DCB5F7CAD4C9CFCEBBBBFA90
:105B60005C436869705C7372635C6D6973632E6318
:105B7000000000000A2A2A2A2A64656661756C748E
:105B80005F69737220656E7465726564206F6E2044
:105B9000766563746F722025642A2A2A2A2A0A0AE3
:105BA000257320496E746572727570740000000070
:105BB00010B5074979441831064C7C44163404E08A
:105BC0000A68081D511888470146A142F8D110BD46
:105BD0007400000080000000417373657274696F87
:105BE0006E206661696C656420696E202573206192
:105BF00074206C696E652025640A00000A4765748C
:105C00002049442073756363657373A3AC53454E99
:105C1000534F522049442069732030782578000082
:105C20000A4F56373732352052656769737465728B
:105C300020436F6E666967205375636365737321D4
:105C400000000000C3B3FFFF881500006C0EFF1FAB
:105C5000000000000ABDF8D0D0BDE2CBF8B2D9D721
:105C6000F7A3ACC7EBD6D8D0C2CBA2C8EBB9CCBC9B
:105C7000FE0000000A436F6E66696720526567691F
:105C800073746572204E756D62657220697320258C
:105C9000642000004EF68851CEF20001086840F4FE
:105CA000700008604FF00070E1EE100A70470000CD
:105CB00000F00BF8002801D0FFF77AFF0020C04663
:105CC000C046FFF7ADFB00F002F80120704700F07E
:105CD00001B800000746384600F002F8FBE7000074
:105CE0002021090326311820ABBEF9E70ABEAFB860
:105CF000E63A53434342D0B4CAFDBEDDB4EDCEF321
:105D0000000000000ABEAFB8E63AD0B4BCC4B4E6A6
:105D1000C6F730782578CAA7B0DC000038B504464D
:105D20000D46284600F006F8A84218BF0024204679
:105D300032BD00000149FDF7CBBD00BF3C0CFF1F89
:105D40000ABDF8C8EBCBC0D1ADBBB7B5C8B4FDA395
:105D5000A10000000ABEAFB8E63AB6C1C8A14944E6
:105D6000CAA7B0DC00000000C046C046FFF792FFA3
:105D7000FFF79EFF00000000000000000000000090
:105D80000000000000000000000000000000000013
:105D9000FFFFFFFFFFFFFFFF00000000000000000B
:105DA00000000000000000000000000000000000F3
:105DB000000000000000000000000000FFFFFFFFE7
:105DC000FFFF0000000000000000000000000000D5
:105DD00000000000000000000000000000000000C3
:105DE00000000000000000000000000000000000B3
:0C5DF000000000000000000000000000A7
:0400000500005D6931
:00000001FF
