:020000040000FA
:1000000030C4FF1F810600008D0C00008F06000029
:100010009106000093060000950600000000000015
:100020000000000000000000000000009706000033
:1000300099060000000000009B0600009D060000DD
:100040009F0600009F0600009F0600009F0600001C
:100050009F0600009F0600009F0600009F0600000C
:100060009F0600009F0600009F0600009F060000FC
:100070009F0600009F0600009F0600009F060000EC
:100080009F0600009F0600009F0600009F060000DC
:100090009F0600009F0600009F0600009F060000CC
:1000A0009F0600009F0600009F0600009F060000BC
:1000B0009F0600009F0600009F0600009F060000AC
:1000C0009F0600009F0600009F0600009F0600009C
:1000D0009F0600009F0600009F0600009F0600008C
:1000E0009F0600009F0600009F0600009F0600007C
:1000F0009F0600009F0600009F0600009F0600006C
:100100009F0600009F0600009F0600009F0600005B
:100110009F0600009F0600009F0600009F0600004B
:100120009F0600009F0600009F0600009F0600003B
:100130009F060000F90600009F0600009F060000D1
:100140009F0600009F0600009F0600009F0600001B
:100150009F0600009F0600009F0600009F0600000B
:100160009F0600009F0600009F0600009F060000FB
:100170009F0600009F0600009F0600009F060000EB
:1003F0009F0600009F0600009F060000FFFFFFFF12
:10040000FFFFFFFFFFFFFFFFFFFFFFFFFEFFFFFFFD
:10041000DFF80CD000F000FF00480047A9060000FC
:1004200030C4FF1F8C48006840F470008A4908609F
:100430004CF220508949C8814DF62810C8814FF4EC
:10044000E97008804FF0827085494864084640682A
:1004500020F4403048608348006840F440208149DF
:100460000860062080490870002048700846C0785F
:1004700040F0E000C87080207C4908707A48007B1A
:1004800000F0FC007849087300200871487100BF33
:100490007548807900F010000028F9D000BF72483C
:1004A000807900F00C000028F9D170476E4A12786C
:1004B00002F0C002002A70D16B4A527902F0400269
:1004C000002A7AD1684A127802F00402002A3ED14A
:1004D000654A127B02F0030222B1012A04D0022AEB
:1004E00005D105E0624805E04FF4004002E000BF9E
:1004F000604800BF00BF5C4A527802F03002E2B1AF
:10050000594A127B02F00302012A16D0564A127889
:1005100002F03802302A04D0382A05D14FF4C061E5
:100520000AE04FF4A06107E04F4A1278C2F3C20319
:1005300020229A4091B200BF06E04B4A1278C2F3E3
:10054000C20301229A4091B2B0FBF1F001E04FF4F6
:100550000040454AD27802F0E00202F01F0353BB8C
:100560005211082A27D2DFE802F004080C10141AEE
:100570001E2200EB8002D0011EE000EB8002100280
:100580001AE0C0EB0012D00116E000EB800250022E
:1005900012E04FF4377250430EE01EE00DE04FF4CE
:1005A000B762504308E040F69502504304E040F63D
:1005B0007132504300E000BF42E02B4A127902F052
:1005C0001F02511C2A4AB2FBF1F0274A527902F06D
:1005D0001F0202F11801484332E0234A127802F068
:1005E000C002402A12D1204A527802F0010212B908
:1005F0004FF4004024E01C4A127AC2F34203012265
:100600009A4091B21C4AB2FBF1F019E0164A1278F6
:1006100002F0C002802A12D1134A127B02F00302B8
:1006200022B1012A04D0022A05D105E0104805E0D4
:100630004FF4004002E000BF0E4800BF00E07047EA
:10064000074A526C012303EB1272B0FBF2F20B4B20
:100650001A6000BFF3E7000088ED00E000200540CD
:1006600000800440007004400040064000500640F6
:1006700000127A00006CDC0200093D0000C0FF1F80
:1006800072B60748804762B606480047FEE7FEE7B5
:10069000FEE7FEE7FEE7FEE7FEE7FEE7FEE7FEE732
:1006A000250400001104000010B500F076F90822BE
:1006B0000121022000F027FB08220221084600F059
:1006C00022FB4FF4E13148F6D84000F09CFC0024B6
:1006D0000EE00221084600F06FFB012300220221F8
:1006E000084600F080FB4FF4FA7000F05AF9641CE1
:1006F0000F2CEED3002010BD10B50420094908606E
:1007000009A000F09BFD002409E00121022000F077
:1007100053FB4FF4FA7000F044F9601C84B2062CCD
:10072000F3DB10BDA0B00440D6D0B6CFC0B4C1CB6F
:100730000D0A00000146FA4A10680020022908D17B
:10074000F84A526C012303EB1272F54B1B6802FB53
:1007500003F0F34A1068012907D1F24A526CC2F340
:100760000362521CB0FBF2F000E000BF00BF704714
:1007700030B500EB4003EC4C54F823301B6800EB21
:100780004004E94D05EB84046468234300EB400416
:1007900055F824402360E54B53F8203053F82130BE
:1007A00023F47063E14C54F8204044F82130DF4BCF
:1007B00053F8203053F821304FF4706404EA0224D7
:1007C0002343DA4C54F8204044F8213030BD30B592
:1007D00000EB4003D44C54F823301B6800EB40047A
:1007E000D14D05EB84046468234300EB400455F8C5
:1007F0002440236062B1CD4B53F8203053F82130B0
:1008000043F02003C94C54F8204044F821300BE059
:10081000C64B53F8203053F8213023F02003C34C4B
:1008200054F8204044F8213030BD10B562B1BF4BC0
:1008300053F8203053F8213043F01003BB4C54F8E8
:10084000204044F821300BE0B84B53F8203053F8E7
:10085000213023F01003B54C54F8204044F82130E7
:1008600010BD10B562B1B14B53F8203053F82130B0
:1008700043F04003AD4C54F8204044F821300BE0E5
:10088000AA4B53F8203053F8213023F04003A74CF3
:1008900054F8204044F8213010BD30B500EB40033F
:1008A000A14C54F823301B6800EB40049E4D05EB2F
:1008B00084046468234300EB400455F8244023601B
:1008C00012B1012A32D118E0984B53F8203053F876
:1008D000213043F00203954C54F8204044F8213075
:1008E000924B53F8203053F8213023F001038F4C02
:1008F00054F8204044F8213025E08C4B53F8203048
:1009000053F8213043F00203884C54F8204044F857
:100910002130864B53F8203053F8213043F0010347
:10092000824C54F8204044F821300CE07F4B53F8BF
:10093000203053F8213023F002037C4C54F820403F
:1009400044F8213000BF00BF30BD01460868704741
:1009500003B5684602680A600CBD00B54FF0E020A0
:10096000006940F004004FF0E02108616FF07F4023
:1009700048610020FFF7DEFE6D4908600846006808
:100980006C49B0FBF1F06A490860084600684FF412
:100990007A7148436849086000BD00B5FFF7DDFF84
:1009A00000BD08B5644A12684FF0E0235A611A4648
:1009B000126942F005021A6100229A6100210EE0DC
:1009C00000BF4FF0E02212690092009A02F001028B
:1009D00022B1009A02F48032002AF2D0491C8142EE
:1009E000EED308BD524909684143B1F1807F05D378
:1009F0006FF07F414FF0E022516105E04C490968FA
:100A000041434FF0E022516100214FF0E02291611B
:100A10001146096941F0050111617047012808D1AB
:100A20004FF0E021096941F002014FF0E02211612D
:100A300007E04FF0E021096921F002014FF0E022C8
:100A4000116170473D4A51601060704770B50446AF
:100A50000D463A48006818B1E0B2384A1168884734
:100A6000204670BD10B504463448406820B1334973
:100A700048688047C0B210BD0020FCE700BFBFF34C
:100A80004F8F2F48006800F4E0602E490843001D96
:100A90002B490860BFF34F8F00BF00BFFEE72A4815
:100AA0000078704770B504460D460120FFF779FFC6
:100AB000FF202649087000204870012C0BD1084601
:100AC000407840F06000487000BF2048C07800F0D7
:100AD00080000028F9D0202C04D0222C07D0242C10
:100AE00036D10BE0194840781849487031E0174872
:100AF000407840F00200154948702AE013484078D9
:100B000040F00300114948700846807820F0070043
:100B100088700846807840F00300887019E0000073
:100B200000C0FF1F008004408C120000C8120000AB
:100B300004C0FF1F40420F0008C0FF1F0CC0FF1F72
:100B40000CED00E00000FA0500F0074000E007406F
:100B500000BF00BF04F0200030B14E48006840F0F4
:100B600004004C49086005E04A48006820F0040091
:100B70004849086035B14748006840F002004549DF
:100B8000086005E04348006820F002004149086021
:100B900004F0300000B130BF70BD3F48006E3E49E8
:100BA000C96D48403C49896D4840704710B50022E6
:100BB000002320F00F00CC1CA408A10006E00023B5
:100BC00002E0001D521C5B1C042BFADB8A42F6D3A8
:100BD00010BD30B502460B461446002102E004F871
:100BE000011B491C9942FAD31446002107E02078E2
:100BF000CDB2A84201D0012030BD641C491C9942ED
:100C0000F5D31446002102E024F8021B491CB1EB85
:100C1000530FF9D31446002107E020888DB2A84273
:100C200001D00120E8E7A41C491CB1EB530FF4D319
:100C30001446002101E002C4491CB1EB930FFAD322
:100C40001446002106E02068884201D00120D3E745
:100C5000241D491CB1EB930FF5D31446002102E08B
:100C6000246001CC491CB1EB930FF9D31446002149
:100C700006E02068A04201D00120BDE7241D491CE8
:100C8000B1EB930FF5D30020B6E7704710B5FFF72F
:100C9000FCFF10BD10ED00E00080044010B5012AFB
:100CA0000BD1A24B53F820305B6901248C402343C5
:100CB0009E4C54F8204063610AE09C4B53F820306E
:100CC0005B6901248C40A343984C54F82040636135
:100CD00010BD10B55AB1954B53F820305B68012414
:100CE0008C402343914C54F8204063600AE08F4BC2
:100CF00053F820309B6801248C4023438B4C54F8DC
:100D00002040A36010BD70B505460E461446092C60
:100D100040D2DFE804F005101B3F263F3F3F27008D
:100D2000FF2231462846FFF7B8FD0022314628460B
:100D3000FFF7B4FF2FE0002231462846FFF7ADFD54
:100D4000002231462846FFF7A9FF24E00122314660
:100D50002846FFF7A2FD002231462846FFF79EFFF6
:100D600019E000BFFF2231462846FFF796FD042C0C
:100D700005D1012231462846FFF7ABFF04E00022EF
:100D800031462846FFF7A5FF012231462846FFF7E6
:100D900085FF00E000BF00BF012231462846FFF773
:100DA000E7FC284670BD0246604850F82200006902
:100DB000C84000F0010070475C4A52F82020D26819
:100DC00001238B401A43594B53F82030DA607047A7
:100DD0000146564850F8210000697047534A52F8BE
:100DE00020201160704770B50446514850F8240027
:100DF00050F8210020F470204D4D55F8245045F84E
:100E000021000BB9002070BD4A4D285700F01F0685
:100E10000125B5404609B60006F1E026C6F80051A6
:100E200000BF22B1012A0FD0022A27D119E0404881
:100E300050F8240050F8210040F410203C4D55F8A3
:100E4000245045F8210019E0394850F8240050F8A2
:100E5000210040F42020364D55F8245045F821005B
:100E60000CE0334850F8240050F8210040F43020C2
:100E70002F4D55F8245045F8210000BF00BF002039
:100E8000C1E730B504466BB9294850F8240050F842
:100E9000210020F47020264D55F8245045F82100FB
:100EA000002030BD224850F8240050F8210020F4E2
:100EB00070201F4D55F8245045F8210022B1012A19
:100EC0000FD0022A27D119E0194850F8240050F811
:100ED000210040F48030164D55F8245045F821008B
:100EE00019E0134850F8240050F8210040F4003075
:100EF0000F4D55F8245045F821000CE00C4850F8EF
:100F0000240050F8210040F44030094D55F8245099
:100F100045F8210000BF00BF0020C2E74FF0FF31BD
:100F2000034A52F82020C2F8A0107047DC120000DB
:100F3000F01200000413000010B502460B46AF4843
:100F400050F82210087900F0200018B1C879187004
:100F5000002010BD087900F0080028B1081D0478B1
:100F600044F00804047000BF0120F2E7A34B53F8DB
:100F7000202000BF137903F08003002BFAD0D17139
:100F8000704770B504460CB1012C04D10020FFF766
:100F9000D1FB054603E00120FFF7CCFB05462846C0
:100FA00070BD2DE9F04707460D46944850F827409C
:100FB0003846FFF7E6FF8046E07820F00C00E0704E
:100FC0002801B8FBF0F6207820F01F002070207870
:100FD000C6F304210843207066704FEA4800B0FB56
:100FE000F5F0202101FB1609A07A20F01F00A07265
:100FF000A07A09F01F010843A072E07840F00C00CD
:10100000E070BDE8F0872DE9F3410F466C4620788B
:1010100000F0070505EB4500794951F8200000680C
:1010200005EB4501764A02EB81014968084305EB6F
:10103000450152F821100860217801F00700394677
:10104000FFF7AFFF00BF00260BE02388C3F3821237
:10105000C3F3442399192378C3F3C200FFF788FB35
:10106000761C2068C0F38430B042EEDC00BF6548D7
:10107000007840B164490D7064496548FFF7E2FCAF
:10108000002060490870207800F00700BDE8FC816E
:1010900001B56A46107800F00700584B53F820104D
:1010A0000020087048708870C8708871887208BD08
:1010B00070B503460C4603EB4300514D55F8200034
:1010C000006803EB43054E4E06EB85056D6828432B
:1010D00003EB430556F825502860484850F8231084
:1010E0004C4DE85600F01F060125B5404609B600F4
:1010F00006F1E026C6F8005100BF24B1012C0DD046
:10110000022C21D115E022B1C87840F08000C870CF
:1011100003E0C87820F08000C87016E022B1C878DB
:1011200040F02000C87003E0C87820F02000C870AC
:101130000BE022B1C87840F01000C87003E0C87816
:1011400020F01000C87000E000BF00BF002070BD9C
:10115000F0B507460E461546284850F8274025B9F1
:10116000002231463846FFF7A3FF16B1012E16D1F3
:101170000AE025B1E07A40F08000E07203E0E07A16
:1011800020F08000E0720AE025B1E07A40F0200013
:10119000E07203E0E07A20F02000E07200BF00BFC0
:1011A000012D04D1012231463846FFF781FF00208E
:1011B000F0BD0246114B53F8220021B1037C43F0ED
:1011C0008003037403E0037C23F0800303747047FF
:1011D00008B500BF69460C480078FFF7ADFE00284F
:1011E000F8D19DF8000008BD10B504462146064818
:1011F0000078FFF7BBFE204610BD000024C0FF1F93
:101200000C13000014C0FF1F20C0FF1FD1110000ED
:10121000E911000030130000064C074D06E0E068BD
:1012200040F0010394E8070098471034AC42F6D32D
:10123000FFF7F2F83413000054130000014A02498A
:1012400000F013B84D0A000018C0FF1F02E008C8E4
:10125000121F08C1002AFAD170477047002001E030
:1012600001C1121F002AFBD170472DE9F04116463B
:101270000F460446002503E03946B047641C6D1C48
:1012800020780028F8D12846BDE8F0813880044055
:10129000000200000000000038800440000400004C
:1012A000000000003880044000080000000000003A
:1012B0003880044000100000000000003880044026
:1012C00000200000000000000090044000A0044046
:1012D00000B0044000C0044000D0044000F00F40C3
:1012E00040F00F4080F00F40C0F00F4000F10F4081
:1012F0000090044000A0044000B0044000C004403E
:1013000000D004403B3C3D3E3F00000034800440A0
:10131000000400000A0000003480044000080000BF
:101320000B00000034800440001000000C0000009E
:101330001F2123005413000000C0FF1F30000000D5
:101340004C1200008413000030C0FF1F0004000096
:101350005C12000000D8B80500000000000000008A
:10136000000000000000000001000000000000007C
:10137000000000000000000000A0064000B0064091
:0413800000C0064063
:0400000500000411E2
:00000001FF
